{"abi":[{"type":"constructor","inputs":[{"name":"_usdc","type":"address","internalType":"address"}],"stateMutability":"nonpayable"},{"type":"function","name":"balanceOf","inputs":[{"name":"account","type":"address","internalType":"address"}],"outputs":[{"name":"","type":"uint256","internalType":"uint256"}],"stateMutability":"view"},{"type":"function","name":"balances","inputs":[{"name":"","type":"address","internalType":"address"}],"outputs":[{"name":"","type":"uint256","internalType":"uint256"}],"stateMutability":"view"},{"type":"function","name":"claim","inputs":[],"outputs":[],"stateMutability":"nonpayable"},{"type":"function","name":"claimManager","inputs":[],"outputs":[{"name":"","type":"address","internalType":"address"}],"stateMutability":"view"},{"type":"function","name":"earned","inputs":[{"name":"account","type":"address","internalType":"address"}],"outputs":[{"name":"","type":"uint256","internalType":"uint256"}],"stateMutability":"view"},{"type":"function","name":"getJagaToken","inputs":[],"outputs":[{"name":"","type":"address","internalType":"contract JagaToken"}],"stateMutability":"view"},{"type":"function","name":"getStakers","inputs":[],"outputs":[{"name":"","type":"address[]","internalType":"address[]"}],"stateMutability":"view"},{"type":"function","name":"getStakersCount","inputs":[],"outputs":[{"name":"","type":"uint256","internalType":"uint256"}],"stateMutability":"view"},{"type":"function","name":"insuranceManager","inputs":[],"outputs":[{"name":"","type":"address","internalType":"address"}],"stateMutability":"view"},{"type":"function","name":"isStaker","inputs":[{"name":"","type":"address","internalType":"address"}],"outputs":[{"name":"","type":"bool","internalType":"bool"}],"stateMutability":"view"},{"type":"function","name":"jagaToken","inputs":[],"outputs":[{"name":"","type":"address","internalType":"contract JagaToken"}],"stateMutability":"view"},{"type":"function","name":"lastTimeRewardApplicable","inputs":[],"outputs":[{"name":"","type":"uint256","internalType":"uint256"}],"stateMutability":"view"},{"type":"function","name":"lastUpdateTime","inputs":[],"outputs":[{"name":"","type":"uint256","internalType":"uint256"}],"stateMutability":"view"},{"type":"function","name":"notifyRewardAmount","inputs":[{"name":"reward","type":"uint256","internalType":"uint256"}],"outputs":[],"stateMutability":"nonpayable"},{"type":"function","name":"owner","inputs":[],"outputs":[{"name":"","type":"address","internalType":"address"}],"stateMutability":"view"},{"type":"function","name":"periodFinish","inputs":[],"outputs":[{"name":"","type":"uint256","internalType":"uint256"}],"stateMutability":"view"},{"type":"function","name":"rewardPerToken","inputs":[],"outputs":[{"name":"","type":"uint256","internalType":"uint256"}],"stateMutability":"view"},{"type":"function","name":"rewardPerTokenStored","inputs":[],"outputs":[{"name":"","type":"uint256","internalType":"uint256"}],"stateMutability":"view"},{"type":"function","name":"rewardRate","inputs":[],"outputs":[{"name":"","type":"uint256","internalType":"uint256"}],"stateMutability":"view"},{"type":"function","name":"rewards","inputs":[{"name":"","type":"address","internalType":"address"}],"outputs":[{"name":"","type":"uint256","internalType":"uint256"}],"stateMutability":"view"},{"type":"function","name":"rewardsDuration","inputs":[],"outputs":[{"name":"","type":"uint256","internalType":"uint256"}],"stateMutability":"view"},{"type":"function","name":"setConfig","inputs":[{"name":"_insuranceManager","type":"address","internalType":"address"},{"name":"_claimManager","type":"address","internalType":"address"}],"outputs":[],"stateMutability":"nonpayable"},{"type":"function","name":"setRewardsDuration","inputs":[{"name":"_rewardsDuration","type":"uint256","internalType":"uint256"}],"outputs":[],"stateMutability":"nonpayable"},{"type":"function","name":"stake","inputs":[{"name":"amount","type":"uint256","internalType":"uint256"}],"outputs":[],"stateMutability":"nonpayable"},{"type":"function","name":"stakers","inputs":[{"name":"","type":"uint256","internalType":"uint256"}],"outputs":[{"name":"","type":"address","internalType":"address"}],"stateMutability":"view"},{"type":"function","name":"timeLeft","inputs":[],"outputs":[{"name":"","type":"uint256","internalType":"uint256"}],"stateMutability":"view"},{"type":"function","name":"totalSupply","inputs":[],"outputs":[{"name":"","type":"uint256","internalType":"uint256"}],"stateMutability":"view"},{"type":"function","name":"unstake","inputs":[{"name":"amount","type":"uint256","internalType":"uint256"}],"outputs":[],"stateMutability":"nonpayable"},{"type":"function","name":"usdc","inputs":[],"outputs":[{"name":"","type":"address","internalType":"contract IERC20"}],"stateMutability":"view"},{"type":"function","name":"userRewardPerTokenPaid","inputs":[{"name":"","type":"address","internalType":"address"}],"outputs":[{"name":"","type":"uint256","internalType":"uint256"}],"stateMutability":"view"},{"type":"function","name":"withdraw","inputs":[{"name":"amount","type":"uint256","internalType":"uint256"}],"outputs":[],"stateMutability":"nonpayable"},{"type":"event","name":"RewardAdded","inputs":[{"name":"reward","type":"uint256","indexed":true,"internalType":"uint256"}],"anonymous":false},{"type":"event","name":"RewardPaid","inputs":[{"name":"user","type":"address","indexed":true,"internalType":"address"},{"name":"reward","type":"uint256","indexed":true,"internalType":"uint256"}],"anonymous":false},{"type":"event","name":"RewardsDurationUpdated","inputs":[{"name":"newDuration","type":"uint256","indexed":true,"internalType":"uint256"}],"anonymous":false},{"type":"event","name":"Staked","inputs":[{"name":"user","type":"address","indexed":true,"internalType":"address"},{"name":"amount","type":"uint256","indexed":true,"internalType":"uint256"}],"anonymous":false},{"type":"event","name":"Unstaked","inputs":[{"name":"user","type":"address","indexed":true,"internalType":"address"},{"name":"amount","type":"uint256","indexed":true,"internalType":"uint256"}],"anonymous":false}],"bytecode":{"object":"0x60a060405262278d00600855348015610016575f5ffd5b50604051613de4380380613de483398181016040528101906100389190610188565b8073ffffffffffffffffffffffffffffffffffffffff1660808173ffffffffffffffffffffffffffffffffffffffff16815250506040516100789061011d565b604051809103905ff080158015610091573d5f5f3e3d5ffd5b505f5f6101000a81548173ffffffffffffffffffffffffffffffffffffffff021916908373ffffffffffffffffffffffffffffffffffffffff1602179055503360035f6101000a81548173ffffffffffffffffffffffffffffffffffffffff021916908373ffffffffffffffffffffffffffffffffffffffff16021790555042600681905550506101b3565b611740806126a483390190565b5f5ffd5b5f73ffffffffffffffffffffffffffffffffffffffff82169050919050565b5f6101578261012e565b9050919050565b6101678161014d565b8114610171575f5ffd5b50565b5f815190506101828161015e565b92915050565b5f6020828403121561019d5761019c61012a565b5b5f6101aa84828501610174565b91505092915050565b6080516124b66101ee5f395f81816109fd01528181610c3601528181610f08015281816110150152818161123a01526116a901526124b65ff3fe608060405234801561000f575f5ffd5b50600436106101e2575f3560e01c806370a082311161010d578063c45ba264116100a0578063df136d651161006f578063df136d651461055c578063ebe2b12b1461057a578063f3523fa414610598578063fd5e6dd1146105b6576101e2565b8063c45ba264146104e6578063c8f33c9114610504578063cc1a378f14610522578063cd3daf9d1461053e576101e2565b80638da5cb5b116100dc5780638da5cb5b14610472578063a694fc3a14610490578063a9a36dcd146104ac578063b602024b146104ca576101e2565b806370a08231146103d65780637b0a47ee1461040657806380faa57d146104245780638b87634714610442576101e2565b80632e1a7d4d1161018557806343352d611161015457806343352d6114610360578063482847891461037e5780634e71d92d1461039c5780636f1e8533146103a6576101e2565b80632e1a7d4d146102ec578063386a9525146103085780633c6b16ab146103265780633e413bee14610342576101e2565b806318160ddd116101c157806318160ddd1461026457806327e235e3146102825780632b538ac4146102b25780632e17de78146102d0576101e2565b80628cc262146101e65780630700037d146102165780631300a6d114610246575b5f5ffd5b61020060048036038101906101fb9190611bf2565b6105e6565b60405161020d9190611c35565b60405180910390f35b610230600480360381019061022b9190611bf2565b6106dc565b60405161023d9190611c35565b60405180910390f35b61024e6106f1565b60405161025b9190611c35565b60405180910390f35b61026c610717565b6040516102799190611c35565b60405180910390f35b61029c60048036038101906102979190611bf2565b61071d565b6040516102a99190611c35565b60405180910390f35b6102ba610732565b6040516102c79190611ca9565b60405180910390f35b6102ea60048036038101906102e59190611cec565b610756565b005b61030660048036038101906103019190611cec565b610ba5565b005b610310610d11565b60405161031d9190611c35565b60405180910390f35b610340600480360381019061033b9190611cec565b610d17565b005b61034a611013565b6040516103579190611d37565b60405180910390f35b610368611037565b6040516103759190611e07565b60405180910390f35b6103866110c2565b6040516103939190611c35565b60405180910390f35b6103a46110ce565b005b6103c060048036038101906103bb9190611bf2565b61135b565b6040516103cd9190611e41565b60405180910390f35b6103f060048036038101906103eb9190611bf2565b611378565b6040516103fd9190611c35565b60405180910390f35b61040e6113be565b60405161041b9190611c35565b60405180910390f35b61042c6113c4565b6040516104399190611c35565b60405180910390f35b61045c60048036038101906104579190611bf2565b6113dd565b6040516104699190611c35565b60405180910390f35b61047a6113f2565b6040516104879190611e69565b60405180910390f35b6104aa60048036038101906104a59190611cec565b611417565b005b6104b4611853565b6040516104c19190611e69565b60405180910390f35b6104e460048036038101906104df9190611e82565b611878565b005b6104ee61198b565b6040516104fb9190611ca9565b60405180910390f35b61050c6119b2565b6040516105199190611c35565b60405180910390f35b61053c60048036038101906105379190611cec565b6119b8565b005b610546611ac4565b6040516105539190611c35565b60405180910390f35b610564611b28565b6040516105719190611c35565b60405180910390f35b610582611b2e565b60405161058f9190611c35565b60405180910390f35b6105a0611b34565b6040516105ad9190611e69565b60405180910390f35b6105d060048036038101906105cb9190611cec565b611b59565b6040516105dd9190611e69565b60405180910390f35b5f600c5f8373ffffffffffffffffffffffffffffffffffffffff1673ffffffffffffffffffffffffffffffffffffffff1681526020019081526020015f2054620f4240600b5f8573ffffffffffffffffffffffffffffffffffffffff1673ffffffffffffffffffffffffffffffffffffffff1681526020019081526020015f205461066f611ac4565b6106799190611eed565b600a5f8673ffffffffffffffffffffffffffffffffffffffff1673ffffffffffffffffffffffffffffffffffffffff1681526020019081526020015f20546106c19190611f20565b6106cb9190611f8e565b6106d59190611fbe565b9050919050565b600c602052805f5260405f205f915090505481565b5f6009544210610703575f9050610714565b426009546107119190611eed565b90505b90565b60045481565b600a602052805f5260405f205f915090505481565b5f5f9054906101000a900473ffffffffffffffffffffffffffffffffffffffff1681565b3361075f611ac4565b60078190555061076d6113c4565b6006819055505f73ffffffffffffffffffffffffffffffffffffffff168173ffffffffffffffffffffffffffffffffffffffff1614610835576107af816105e6565b600c5f8373ffffffffffffffffffffffffffffffffffffffff1673ffffffffffffffffffffffffffffffffffffffff1681526020019081526020015f2081905550600754600b5f8373ffffffffffffffffffffffffffffffffffffffff1673ffffffffffffffffffffffffffffffffffffffff1681526020019081526020015f20819055505b5f8211610877576040517f08c379a000000000000000000000000000000000000000000000000000000000815260040161086e9061204b565b60405180910390fd5b81600a5f3373ffffffffffffffffffffffffffffffffffffffff1673ffffffffffffffffffffffffffffffffffffffff1681526020019081526020015f205410156108f7576040517f08c379a00000000000000000000000000000000000000000000000000000000081526004016108ee906120b3565b60405180910390fd5b8160045f8282546109089190611eed565b9250508190555081600a5f3373ffffffffffffffffffffffffffffffffffffffff1673ffffffffffffffffffffffffffffffffffffffff1681526020019081526020015f205f82825461095b9190611eed565b925050819055505f600a5f3373ffffffffffffffffffffffffffffffffffffffff1673ffffffffffffffffffffffffffffffffffffffff1681526020019081526020015f2054036109fb575f600e5f3373ffffffffffffffffffffffffffffffffffffffff1673ffffffffffffffffffffffffffffffffffffffff1681526020019081526020015f205f6101000a81548160ff0219169083151502179055505b7f000000000000000000000000000000000000000000000000000000000000000073ffffffffffffffffffffffffffffffffffffffff1663a9059cbb33846040518363ffffffff1660e01b8152600401610a569291906120d1565b6020604051808303815f875af1158015610a72573d5f5f3e3d5ffd5b505050506040513d601f19601f82011682018060405250810190610a969190612122565b610ad5576040517f08c379a0000000000000000000000000000000000000000000000000000000008152600401610acc90612197565b60405180910390fd5b5f5f9054906101000a900473ffffffffffffffffffffffffffffffffffffffff1673ffffffffffffffffffffffffffffffffffffffff16639dc29fac33846040518363ffffffff1660e01b8152600401610b309291906120d1565b5f604051808303815f87803b158015610b47575f5ffd5b505af1158015610b59573d5f5f3e3d5ffd5b50505050813373ffffffffffffffffffffffffffffffffffffffff167f0f5bb82176feb1b5e747e28471aa92156a04d9f3ab9f45f28e2d704232b93f7560405160405180910390a35050565b60025f9054906101000a900473ffffffffffffffffffffffffffffffffffffffff1673ffffffffffffffffffffffffffffffffffffffff163373ffffffffffffffffffffffffffffffffffffffff1614610c34576040517f08c379a0000000000000000000000000000000000000000000000000000000008152600401610c2b906121ff565b60405180910390fd5b7f000000000000000000000000000000000000000000000000000000000000000073ffffffffffffffffffffffffffffffffffffffff1663a9059cbb33836040518363ffffffff1660e01b8152600401610c8f9291906120d1565b6020604051808303815f875af1158015610cab573d5f5f3e3d5ffd5b505050506040513d601f19601f82011682018060405250810190610ccf9190612122565b610d0e576040517f08c379a0000000000000000000000000000000000000000000000000000000008152600401610d0590612197565b60405180910390fd5b50565b60085481565b5f610d20611ac4565b600781905550610d2e6113c4565b6006819055505f73ffffffffffffffffffffffffffffffffffffffff168173ffffffffffffffffffffffffffffffffffffffff1614610df657610d70816105e6565b600c5f8373ffffffffffffffffffffffffffffffffffffffff1673ffffffffffffffffffffffffffffffffffffffff1681526020019081526020015f2081905550600754600b5f8373ffffffffffffffffffffffffffffffffffffffff1673ffffffffffffffffffffffffffffffffffffffff1681526020019081526020015f20819055505b60015f9054906101000a900473ffffffffffffffffffffffffffffffffffffffff1673ffffffffffffffffffffffffffffffffffffffff163373ffffffffffffffffffffffffffffffffffffffff1614610e85576040517f08c379a0000000000000000000000000000000000000000000000000000000008152600401610e7c90612267565b60405180910390fd5b6009544210610ea75760085482610e9c9190611f8e565b600581905550610eeb565b5f42600954610eb69190611eed565b90505f60055482610ec79190611f20565b90506008548185610ed89190611fbe565b610ee29190611f8e565b60058190555050505b4260068190555060085442610f009190611fbe565b6009819055507f000000000000000000000000000000000000000000000000000000000000000073ffffffffffffffffffffffffffffffffffffffff166323b872dd3330856040518463ffffffff1660e01b8152600401610f6393929190612285565b6020604051808303815f875af1158015610f7f573d5f5f3e3d5ffd5b505050506040513d601f19601f82011682018060405250810190610fa39190612122565b610fe2576040517f08c379a0000000000000000000000000000000000000000000000000000000008152600401610fd990612197565b60405180910390fd5b817fde88a922e0d3b88b24e9623efeb464919c6bf9f66857a65e2bfcf2ce87a9433d60405160405180910390a25050565b7f000000000000000000000000000000000000000000000000000000000000000081565b6060600d8054806020026020016040519081016040528092919081815260200182805480156110b857602002820191905f5260205f20905b815f9054906101000a900473ffffffffffffffffffffffffffffffffffffffff1673ffffffffffffffffffffffffffffffffffffffff168152602001906001019080831161106f575b5050505050905090565b5f600d80549050905090565b336110d7611ac4565b6007819055506110e56113c4565b6006819055505f73ffffffffffffffffffffffffffffffffffffffff168173ffffffffffffffffffffffffffffffffffffffff16146111ad57611127816105e6565b600c5f8373ffffffffffffffffffffffffffffffffffffffff1673ffffffffffffffffffffffffffffffffffffffff1681526020019081526020015f2081905550600754600b5f8373ffffffffffffffffffffffffffffffffffffffff1673ffffffffffffffffffffffffffffffffffffffff1681526020019081526020015f20819055505b5f600c5f3373ffffffffffffffffffffffffffffffffffffffff1673ffffffffffffffffffffffffffffffffffffffff1681526020019081526020015f205490505f811115611357575f600c5f3373ffffffffffffffffffffffffffffffffffffffff1673ffffffffffffffffffffffffffffffffffffffff1681526020019081526020015f20819055507f000000000000000000000000000000000000000000000000000000000000000073ffffffffffffffffffffffffffffffffffffffff1663a9059cbb33836040518363ffffffff1660e01b81526004016112939291906120d1565b6020604051808303815f875af11580156112af573d5f5f3e3d5ffd5b505050506040513d601f19601f820116820180604052508101906112d39190612122565b611312576040517f08c379a000000000000000000000000000000000000000000000000000000000815260040161130990612304565b60405180910390fd5b803373ffffffffffffffffffffffffffffffffffffffff167fe2403640ba68fed3a2f88b7557551d1993f84b99bb10ff833f0cf8db0c5e048660405160405180910390a35b5050565b600e602052805f5260405f205f915054906101000a900460ff1681565b5f600a5f8373ffffffffffffffffffffffffffffffffffffffff1673ffffffffffffffffffffffffffffffffffffffff1681526020019081526020015f20549050919050565b60055481565b5f60095442106113d6576009546113d8565b425b905090565b600b602052805f5260405f205f915090505481565b60035f9054906101000a900473ffffffffffffffffffffffffffffffffffffffff1681565b33611420611ac4565b60078190555061142e6113c4565b6006819055505f73ffffffffffffffffffffffffffffffffffffffff168173ffffffffffffffffffffffffffffffffffffffff16146114f657611470816105e6565b600c5f8373ffffffffffffffffffffffffffffffffffffffff1673ffffffffffffffffffffffffffffffffffffffff1681526020019081526020015f2081905550600754600b5f8373ffffffffffffffffffffffffffffffffffffffff1673ffffffffffffffffffffffffffffffffffffffff1681526020019081526020015f20819055505b5f8211611538576040517f08c379a000000000000000000000000000000000000000000000000000000000815260040161152f9061236c565b60405180910390fd5b600e5f3373ffffffffffffffffffffffffffffffffffffffff1673ffffffffffffffffffffffffffffffffffffffff1681526020019081526020015f205f9054906101000a900460ff1661163c57600d33908060018154018082558091505060019003905f5260205f20015f9091909190916101000a81548173ffffffffffffffffffffffffffffffffffffffff021916908373ffffffffffffffffffffffffffffffffffffffff1602179055506001600e5f3373ffffffffffffffffffffffffffffffffffffffff1673ffffffffffffffffffffffffffffffffffffffff1681526020019081526020015f205f6101000a81548160ff0219169083151502179055505b8160045f82825461164d9190611fbe565b9250508190555081600a5f3373ffffffffffffffffffffffffffffffffffffffff1673ffffffffffffffffffffffffffffffffffffffff1681526020019081526020015f205f8282546116a09190611fbe565b925050819055507f000000000000000000000000000000000000000000000000000000000000000073ffffffffffffffffffffffffffffffffffffffff166323b872dd3330856040518463ffffffff1660e01b815260040161170493929190612285565b6020604051808303815f875af1158015611720573d5f5f3e3d5ffd5b505050506040513d601f19601f820116820180604052508101906117449190612122565b611783576040517f08c379a000000000000000000000000000000000000000000000000000000000815260040161177a90612197565b60405180910390fd5b5f5f9054906101000a900473ffffffffffffffffffffffffffffffffffffffff1673ffffffffffffffffffffffffffffffffffffffff166340c10f1933846040518363ffffffff1660e01b81526004016117de9291906120d1565b5f604051808303815f87803b1580156117f5575f5ffd5b505af1158015611807573d5f5f3e3d5ffd5b50505050813373ffffffffffffffffffffffffffffffffffffffff167f9e71bc8eea02a63969f509818f2dafb9254532904319f9dbda79b67bd34a5f3d60405160405180910390a35050565b60025f9054906101000a900473ffffffffffffffffffffffffffffffffffffffff1681565b60035f9054906101000a900473ffffffffffffffffffffffffffffffffffffffff1673ffffffffffffffffffffffffffffffffffffffff163373ffffffffffffffffffffffffffffffffffffffff1614611907576040517f08c379a00000000000000000000000000000000000000000000000000000000081526004016118fe906123d4565b60405180910390fd5b8160015f6101000a81548173ffffffffffffffffffffffffffffffffffffffff021916908373ffffffffffffffffffffffffffffffffffffffff1602179055508060025f6101000a81548173ffffffffffffffffffffffffffffffffffffffff021916908373ffffffffffffffffffffffffffffffffffffffff1602179055505050565b5f5f5f9054906101000a900473ffffffffffffffffffffffffffffffffffffffff16905090565b60065481565b60035f9054906101000a900473ffffffffffffffffffffffffffffffffffffffff1673ffffffffffffffffffffffffffffffffffffffff163373ffffffffffffffffffffffffffffffffffffffff1614611a47576040517f08c379a0000000000000000000000000000000000000000000000000000000008152600401611a3e906123d4565b60405180910390fd5b6009544211611a8b576040517f08c379a0000000000000000000000000000000000000000000000000000000008152600401611a8290612462565b60405180910390fd5b806008819055506008547ffb46ca5a5e06d4540d6387b930a7c978bce0db5f449ec6b3f5d07c6e1d44f2d360405160405180910390a250565b5f5f60045403611ad8576007549050611b25565b600454620f4240600554600654611aed6113c4565b611af79190611eed565b611b019190611f20565b611b0b9190611f20565b611b159190611f8e565b600754611b229190611fbe565b90505b90565b60075481565b60095481565b60015f9054906101000a900473ffffffffffffffffffffffffffffffffffffffff1681565b600d8181548110611b68575f80fd5b905f5260205f20015f915054906101000a900473ffffffffffffffffffffffffffffffffffffffff1681565b5f5ffd5b5f73ffffffffffffffffffffffffffffffffffffffff82169050919050565b5f611bc182611b98565b9050919050565b611bd181611bb7565b8114611bdb575f5ffd5b50565b5f81359050611bec81611bc8565b92915050565b5f60208284031215611c0757611c06611b94565b5b5f611c1484828501611bde565b91505092915050565b5f819050919050565b611c2f81611c1d565b82525050565b5f602082019050611c485f830184611c26565b92915050565b5f819050919050565b5f611c71611c6c611c6784611b98565b611c4e565b611b98565b9050919050565b5f611c8282611c57565b9050919050565b5f611c9382611c78565b9050919050565b611ca381611c89565b82525050565b5f602082019050611cbc5f830184611c9a565b92915050565b611ccb81611c1d565b8114611cd5575f5ffd5b50565b5f81359050611ce681611cc2565b92915050565b5f60208284031215611d0157611d00611b94565b5b5f611d0e84828501611cd8565b91505092915050565b5f611d2182611c78565b9050919050565b611d3181611d17565b82525050565b5f602082019050611d4a5f830184611d28565b92915050565b5f81519050919050565b5f82825260208201905092915050565b5f819050602082019050919050565b611d8281611bb7565b82525050565b5f611d938383611d79565b60208301905092915050565b5f602082019050919050565b5f611db582611d50565b611dbf8185611d5a565b9350611dca83611d6a565b805f5b83811015611dfa578151611de18882611d88565b9750611dec83611d9f565b925050600181019050611dcd565b5085935050505092915050565b5f6020820190508181035f830152611e1f8184611dab565b905092915050565b5f8115159050919050565b611e3b81611e27565b82525050565b5f602082019050611e545f830184611e32565b92915050565b611e6381611bb7565b82525050565b5f602082019050611e7c5f830184611e5a565b92915050565b5f5f60408385031215611e9857611e97611b94565b5b5f611ea585828601611bde565b9250506020611eb685828601611bde565b9150509250929050565b7f4e487b71000000000000000000000000000000000000000000000000000000005f52601160045260245ffd5b5f611ef782611c1d565b9150611f0283611c1d565b9250828203905081811115611f1a57611f19611ec0565b5b92915050565b5f611f2a82611c1d565b9150611f3583611c1d565b9250828202611f4381611c1d565b91508282048414831517611f5a57611f59611ec0565b5b5092915050565b7f4e487b71000000000000000000000000000000000000000000000000000000005f52601260045260245ffd5b5f611f9882611c1d565b9150611fa383611c1d565b925082611fb357611fb2611f61565b5b828204905092915050565b5f611fc882611c1d565b9150611fd383611c1d565b9250828201905080821115611feb57611fea611ec0565b5b92915050565b5f82825260208201905092915050565b7f43616e6e6f7420756e7374616b652030000000000000000000000000000000005f82015250565b5f612035601083611ff1565b915061204082612001565b602082019050919050565b5f6020820190508181035f83015261206281612029565b9050919050565b7f496e73756666696369656e742062616c616e63650000000000000000000000005f82015250565b5f61209d601483611ff1565b91506120a882612069565b602082019050919050565b5f6020820190508181035f8301526120ca81612091565b9050919050565b5f6040820190506120e45f830185611e5a565b6120f16020830184611c26565b9392505050565b61210181611e27565b811461210b575f5ffd5b50565b5f8151905061211c816120f8565b92915050565b5f6020828403121561213757612136611b94565b5b5f6121448482850161210e565b91505092915050565b7f5472616e73666572206661696c656400000000000000000000000000000000005f82015250565b5f612181600f83611ff1565b915061218c8261214d565b602082019050919050565b5f6020820190508181035f8301526121ae81612175565b9050919050565b7f496e76616c6964207573657200000000000000000000000000000000000000005f82015250565b5f6121e9600c83611ff1565b91506121f4826121b5565b602082019050919050565b5f6020820190508181035f830152612216816121dd565b9050919050565b7f4f6e6c7920696e737572616e6365206d616e61676572000000000000000000005f82015250565b5f612251601683611ff1565b915061225c8261221d565b602082019050919050565b5f6020820190508181035f83015261227e81612245565b9050919050565b5f6060820190506122985f830186611e5a565b6122a56020830185611e5a565b6122b26040830184611c26565b949350505050565b7f526577617264207472616e73666572206661696c6564000000000000000000005f82015250565b5f6122ee601683611ff1565b91506122f9826122ba565b602082019050919050565b5f6020820190508181035f83015261231b816122e2565b9050919050565b7f43616e6e6f74207374616b6520300000000000000000000000000000000000005f82015250565b5f612356600e83611ff1565b915061236182612322565b602082019050919050565b5f6020820190508181035f8301526123838161234a565b9050919050565b7f4e6f74206f776e657200000000000000000000000000000000000000000000005f82015250565b5f6123be600983611ff1565b91506123c98261238a565b602082019050919050565b5f6020820190508181035f8301526123eb816123b2565b9050919050565b7f50726576696f7573207265776172647320706572696f64206d757374206265205f8201527f636f6d706c657465000000000000000000000000000000000000000000000000602082015250565b5f61244c602883611ff1565b9150612457826123f2565b604082019050919050565b5f6020820190508181035f83015261247981612440565b905091905056fea2646970667358221220db21032366847b5c62a351f4cfdf8c6f8ada0924b3dfd9c2e21fef90367c0a2e64736f6c634300081e0033608060405234801561000f575f5ffd5b50336040518060400160405280600981526020017f4a616761546f6b656e00000000000000000000000000000000000000000000008152506040518060400160405280600481526020017f4a41474100000000000000000000000000000000000000000000000000000000815250816003908161008c9190610424565b50806004908161009c9190610424565b5050505f73ffffffffffffffffffffffffffffffffffffffff168173ffffffffffffffffffffffffffffffffffffffff160361010f575f6040517f1e4fbdf70000000000000000000000000000000000000000000000000000000081526004016101069190610532565b60405180910390fd5b61011e8161012460201b60201c565b5061054b565b5f60055f9054906101000a900473ffffffffffffffffffffffffffffffffffffffff1690508160055f6101000a81548173ffffffffffffffffffffffffffffffffffffffff021916908373ffffffffffffffffffffffffffffffffffffffff1602179055508173ffffffffffffffffffffffffffffffffffffffff168173ffffffffffffffffffffffffffffffffffffffff167f8be0079c531659141344cd1fd0a4f28419497f9722a3daafe3b4186f6b6457e060405160405180910390a35050565b5f81519050919050565b7f4e487b71000000000000000000000000000000000000000000000000000000005f52604160045260245ffd5b7f4e487b71000000000000000000000000000000000000000000000000000000005f52602260045260245ffd5b5f600282049050600182168061026257607f821691505b6020821081036102755761027461021e565b5b50919050565b5f819050815f5260205f209050919050565b5f6020601f8301049050919050565b5f82821b905092915050565b5f600883026102d77fffffffffffffffffffffffffffffffffffffffffffffffffffffffffffffffff8261029c565b6102e1868361029c565b95508019841693508086168417925050509392505050565b5f819050919050565b5f819050919050565b5f61032561032061031b846102f9565b610302565b6102f9565b9050919050565b5f819050919050565b61033e8361030b565b61035261034a8261032c565b8484546102a8565b825550505050565b5f5f905090565b61036961035a565b610374818484610335565b505050565b5b818110156103975761038c5f82610361565b60018101905061037a565b5050565b601f8211156103dc576103ad8161027b565b6103b68461028d565b810160208510156103c5578190505b6103d96103d18561028d565b830182610379565b50505b505050565b5f82821c905092915050565b5f6103fc5f19846008026103e1565b1980831691505092915050565b5f61041483836103ed565b9150826002028217905092915050565b61042d826101e7565b67ffffffffffffffff811115610446576104456101f1565b5b610450825461024b565b61045b82828561039b565b5f60209050601f83116001811461048c575f841561047a578287015190505b6104848582610409565b8655506104eb565b601f19841661049a8661027b565b5f5b828110156104c15784890151825560018201915060208501945060208101905061049c565b868310156104de57848901516104da601f8916826103ed565b8355505b6001600288020188555050505b505050505050565b5f73ffffffffffffffffffffffffffffffffffffffff82169050919050565b5f61051c826104f3565b9050919050565b61052c81610512565b82525050565b5f6020820190506105455f830184610523565b92915050565b6111e8806105585f395ff3fe608060405234801561000f575f5ffd5b50600436106100e8575f3560e01c8063715018a61161008a5780639dc29fac116100645780639dc29fac14610238578063a9059cbb14610254578063dd62ed3e14610284578063f2fde38b146102b4576100e8565b8063715018a6146101f25780638da5cb5b146101fc57806395d89b411461021a576100e8565b806323b872dd116100c657806323b872dd14610158578063313ce5671461018857806340c10f19146101a657806370a08231146101c2576100e8565b806306fdde03146100ec578063095ea7b31461010a57806318160ddd1461013a575b5f5ffd5b6100f46102d0565b6040516101019190610e61565b60405180910390f35b610124600480360381019061011f9190610f12565b610360565b6040516101319190610f6a565b60405180910390f35b610142610382565b60405161014f9190610f92565b60405180910390f35b610172600480360381019061016d9190610fab565b61038b565b60405161017f9190610f6a565b60405180910390f35b6101906103b9565b60405161019d9190611016565b60405180910390f35b6101c060048036038101906101bb9190610f12565b6103c1565b005b6101dc60048036038101906101d7919061102f565b6103d7565b6040516101e99190610f92565b60405180910390f35b6101fa61041c565b005b61020461042f565b6040516102119190611069565b60405180910390f35b610222610457565b60405161022f9190610e61565b60405180910390f35b610252600480360381019061024d9190610f12565b6104e7565b005b61026e60048036038101906102699190610f12565b6104fd565b60405161027b9190610f6a565b60405180910390f35b61029e60048036038101906102999190611082565b61051f565b6040516102ab9190610f92565b60405180910390f35b6102ce60048036038101906102c9919061102f565b6105a1565b005b6060600380546102df906110ed565b80601f016020809104026020016040519081016040528092919081815260200182805461030b906110ed565b80156103565780601f1061032d57610100808354040283529160200191610356565b820191905f5260205f20905b81548152906001019060200180831161033957829003601f168201915b5050505050905090565b5f5f61036a610625565b905061037781858561062c565b600191505092915050565b5f600254905090565b5f5f610395610625565b90506103a285828561063e565b6103ad8585856106d1565b60019150509392505050565b5f6012905090565b6103c96107c1565b6103d38282610848565b5050565b5f5f5f8373ffffffffffffffffffffffffffffffffffffffff1673ffffffffffffffffffffffffffffffffffffffff1681526020019081526020015f20549050919050565b6104246107c1565b61042d5f6108c7565b565b5f60055f9054906101000a900473ffffffffffffffffffffffffffffffffffffffff16905090565b606060048054610466906110ed565b80601f0160208091040260200160405190810160405280929190818152602001828054610492906110ed565b80156104dd5780601f106104b4576101008083540402835291602001916104dd565b820191905f5260205f20905b8154815290600101906020018083116104c057829003601f168201915b5050505050905090565b6104ef6107c1565b6104f9828261098a565b5050565b5f5f610507610625565b90506105148185856106d1565b600191505092915050565b5f60015f8473ffffffffffffffffffffffffffffffffffffffff1673ffffffffffffffffffffffffffffffffffffffff1681526020019081526020015f205f8373ffffffffffffffffffffffffffffffffffffffff1673ffffffffffffffffffffffffffffffffffffffff1681526020019081526020015f2054905092915050565b6105a96107c1565b5f73ffffffffffffffffffffffffffffffffffffffff168173ffffffffffffffffffffffffffffffffffffffff1603610619575f6040517f1e4fbdf70000000000000000000000000000000000000000000000000000000081526004016106109190611069565b60405180910390fd5b610622816108c7565b50565b5f33905090565b6106398383836001610a09565b505050565b5f610649848461051f565b90507fffffffffffffffffffffffffffffffffffffffffffffffffffffffffffffffff8110156106cb57818110156106bc578281836040517ffb8f41b20000000000000000000000000000000000000000000000000000000081526004016106b39392919061111d565b60405180910390fd5b6106ca84848484035f610a09565b5b50505050565b5f73ffffffffffffffffffffffffffffffffffffffff168373ffffffffffffffffffffffffffffffffffffffff1603610741575f6040517f96c6fd1e0000000000000000000000000000000000000000000000000000000081526004016107389190611069565b60405180910390fd5b5f73ffffffffffffffffffffffffffffffffffffffff168273ffffffffffffffffffffffffffffffffffffffff16036107b1575f6040517fec442f050000000000000000000000000000000000000000000000000000000081526004016107a89190611069565b60405180910390fd5b6107bc838383610bd8565b505050565b6107c9610625565b73ffffffffffffffffffffffffffffffffffffffff166107e761042f565b73ffffffffffffffffffffffffffffffffffffffff16146108465761080a610625565b6040517f118cdaa700000000000000000000000000000000000000000000000000000000815260040161083d9190611069565b60405180910390fd5b565b5f73ffffffffffffffffffffffffffffffffffffffff168273ffffffffffffffffffffffffffffffffffffffff16036108b8575f6040517fec442f050000000000000000000000000000000000000000000000000000000081526004016108af9190611069565b60405180910390fd5b6108c35f8383610bd8565b5050565b5f60055f9054906101000a900473ffffffffffffffffffffffffffffffffffffffff1690508160055f6101000a81548173ffffffffffffffffffffffffffffffffffffffff021916908373ffffffffffffffffffffffffffffffffffffffff1602179055508173ffffffffffffffffffffffffffffffffffffffff168173ffffffffffffffffffffffffffffffffffffffff167f8be0079c531659141344cd1fd0a4f28419497f9722a3daafe3b4186f6b6457e060405160405180910390a35050565b5f73ffffffffffffffffffffffffffffffffffffffff168273ffffffffffffffffffffffffffffffffffffffff16036109fa575f6040517f96c6fd1e0000000000000000000000000000000000000000000000000000000081526004016109f19190611069565b60405180910390fd5b610a05825f83610bd8565b5050565b5f73ffffffffffffffffffffffffffffffffffffffff168473ffffffffffffffffffffffffffffffffffffffff1603610a79575f6040517fe602df05000000000000000000000000000000000000000000000000000000008152600401610a709190611069565b60405180910390fd5b5f73ffffffffffffffffffffffffffffffffffffffff168373ffffffffffffffffffffffffffffffffffffffff1603610ae9575f6040517f94280d62000000000000000000000000000000000000000000000000000000008152600401610ae09190611069565b60405180910390fd5b8160015f8673ffffffffffffffffffffffffffffffffffffffff1673ffffffffffffffffffffffffffffffffffffffff1681526020019081526020015f205f8573ffffffffffffffffffffffffffffffffffffffff1673ffffffffffffffffffffffffffffffffffffffff1681526020019081526020015f20819055508015610bd2578273ffffffffffffffffffffffffffffffffffffffff168473ffffffffffffffffffffffffffffffffffffffff167f8c5be1e5ebec7d5bd14f71427d1e84f3dd0314c0f7b2291e5b200ac8c7c3b92584604051610bc99190610f92565b60405180910390a35b50505050565b5f73ffffffffffffffffffffffffffffffffffffffff168373ffffffffffffffffffffffffffffffffffffffff1603610c28578060025f828254610c1c919061117f565b92505081905550610cf6565b5f5f5f8573ffffffffffffffffffffffffffffffffffffffff1673ffffffffffffffffffffffffffffffffffffffff1681526020019081526020015f2054905081811015610cb1578381836040517fe450d38c000000000000000000000000000000000000000000000000000000008152600401610ca89392919061111d565b60405180910390fd5b8181035f5f8673ffffffffffffffffffffffffffffffffffffffff1673ffffffffffffffffffffffffffffffffffffffff1681526020019081526020015f2081905550505b5f73ffffffffffffffffffffffffffffffffffffffff168273ffffffffffffffffffffffffffffffffffffffff1603610d3d578060025f8282540392505081905550610d87565b805f5f8473ffffffffffffffffffffffffffffffffffffffff1673ffffffffffffffffffffffffffffffffffffffff1681526020019081526020015f205f82825401925050819055505b8173ffffffffffffffffffffffffffffffffffffffff168373ffffffffffffffffffffffffffffffffffffffff167fddf252ad1be2c89b69c2b068fc378daa952ba7f163c4a11628f55a4df523b3ef83604051610de49190610f92565b60405180910390a3505050565b5f81519050919050565b5f82825260208201905092915050565b8281835e5f83830152505050565b5f601f19601f8301169050919050565b5f610e3382610df1565b610e3d8185610dfb565b9350610e4d818560208601610e0b565b610e5681610e19565b840191505092915050565b5f6020820190508181035f830152610e798184610e29565b905092915050565b5f5ffd5b5f73ffffffffffffffffffffffffffffffffffffffff82169050919050565b5f610eae82610e85565b9050919050565b610ebe81610ea4565b8114610ec8575f5ffd5b50565b5f81359050610ed981610eb5565b92915050565b5f819050919050565b610ef181610edf565b8114610efb575f5ffd5b50565b5f81359050610f0c81610ee8565b92915050565b5f5f60408385031215610f2857610f27610e81565b5b5f610f3585828601610ecb565b9250506020610f4685828601610efe565b9150509250929050565b5f8115159050919050565b610f6481610f50565b82525050565b5f602082019050610f7d5f830184610f5b565b92915050565b610f8c81610edf565b82525050565b5f602082019050610fa55f830184610f83565b92915050565b5f5f5f60608486031215610fc257610fc1610e81565b5b5f610fcf86828701610ecb565b9350506020610fe086828701610ecb565b9250506040610ff186828701610efe565b9150509250925092565b5f60ff82169050919050565b61101081610ffb565b82525050565b5f6020820190506110295f830184611007565b92915050565b5f6020828403121561104457611043610e81565b5b5f61105184828501610ecb565b91505092915050565b61106381610ea4565b82525050565b5f60208201905061107c5f83018461105a565b92915050565b5f5f6040838503121561109857611097610e81565b5b5f6110a585828601610ecb565b92505060206110b685828601610ecb565b9150509250929050565b7f4e487b71000000000000000000000000000000000000000000000000000000005f52602260045260245ffd5b5f600282049050600182168061110457607f821691505b602082108103611117576111166110c0565b5b50919050565b5f6060820190506111305f83018661105a565b61113d6020830185610f83565b61114a6040830184610f83565b949350505050565b7f4e487b71000000000000000000000000000000000000000000000000000000005f52601160045260245ffd5b5f61118982610edf565b915061119483610edf565b92508282019050808211156111ac576111ab611152565b5b9291505056fea2646970667358221220ad5d3ff8522d31e4ffdb169ec0f0f78c6303867126fb08cc5ea220671cca355d64736f6c634300081e0033","linkReferences":{}},"methodIdentifiers":{"balanceOf(address)":"70a08231","balances(address)":"27e235e3","claim()":"4e71d92d","claimManager()":"a9a36dcd","earned(address)":"008cc262","getJagaToken()":"c45ba264","getStakers()":"43352d61","getStakersCount()":"48284789","insuranceManager()":"f3523fa4","isStaker(address)":"6f1e8533","jagaToken()":"2b538ac4","lastTimeRewardApplicable()":"80faa57d","lastUpdateTime()":"c8f33c91","notifyRewardAmount(uint256)":"3c6b16ab","owner()":"8da5cb5b","periodFinish()":"ebe2b12b","rewardPerToken()":"cd3daf9d","rewardPerTokenStored()":"df136d65","rewardRate()":"7b0a47ee","rewards(address)":"0700037d","rewardsDuration()":"386a9525","setConfig(address,address)":"b602024b","setRewardsDuration(uint256)":"cc1a378f","stake(uint256)":"a694fc3a","stakers(uint256)":"fd5e6dd1","timeLeft()":"1300a6d1","totalSupply()":"18160ddd","unstake(uint256)":"2e17de78","usdc()":"3e413bee","userRewardPerTokenPaid(address)":"8b876347","withdraw(uint256)":"2e1a7d4d"},"id":30}