{"abi":[{"type":"constructor","inputs":[{"name":"_usdc","type":"address","internalType":"address"}],"stateMutability":"nonpayable"},{"type":"function","name":"claimExecuted","inputs":[{"name":"","type":"uint256","internalType":"uint256"}],"outputs":[{"name":"","type":"bool","internalType":"bool"}],"stateMutability":"view"},{"type":"function","name":"claimPayout","inputs":[{"name":"claimId","type":"uint256","internalType":"uint256"}],"outputs":[],"stateMutability":"nonpayable"},{"type":"function","name":"daoGovernance","inputs":[],"outputs":[{"name":"","type":"address","internalType":"address"}],"stateMutability":"view"},{"type":"function","name":"jagaStake","inputs":[],"outputs":[{"name":"","type":"address","internalType":"address"}],"stateMutability":"view"},{"type":"function","name":"owner","inputs":[],"outputs":[{"name":"","type":"address","internalType":"address"}],"stateMutability":"view"},{"type":"function","name":"setConfig","inputs":[{"name":"_daoGovernance","type":"address","internalType":"address"},{"name":"_jagaStake","type":"address","internalType":"address"}],"outputs":[],"stateMutability":"nonpayable"},{"type":"function","name":"usdc","inputs":[],"outputs":[{"name":"","type":"address","internalType":"address"}],"stateMutability":"view"},{"type":"function","name":"vaultBalance","inputs":[],"outputs":[{"name":"","type":"uint256","internalType":"uint256"}],"stateMutability":"view"},{"type":"event","name":"ClaimPaid","inputs":[{"name":"claimId","type":"uint256","indexed":true,"internalType":"uint256"},{"name":"to","type":"address","indexed":true,"internalType":"address"},{"name":"amount","type":"uint256","indexed":true,"internalType":"uint256"}],"anonymous":false}],"bytecode":{"object":"0x608060405234801561000f575f5ffd5b506040516110cd3803806110cd83398181016040528101906100319190610114565b3360035f6101000a81548173ffffffffffffffffffffffffffffffffffffffff021916908373ffffffffffffffffffffffffffffffffffffffff160217905550805f5f6101000a81548173ffffffffffffffffffffffffffffffffffffffff021916908373ffffffffffffffffffffffffffffffffffffffff1602179055505061013f565b5f5ffd5b5f73ffffffffffffffffffffffffffffffffffffffff82169050919050565b5f6100e3826100ba565b9050919050565b6100f3816100d9565b81146100fd575f5ffd5b50565b5f8151905061010e816100ea565b92915050565b5f60208284031215610129576101286100b6565b5b5f61013684828501610100565b91505092915050565b610f818061014c5f395ff3fe608060405234801561000f575f5ffd5b5060043610610086575f3560e01c80638da5cb5b116100595780638da5cb5b14610100578063ae5183e91461011e578063b29b189f1461013c578063b602024b1461016c57610086565b80630bf6cc081461008a5780633d4e5ddd146100a85780633e413bee146100c65780638a69614e146100e4575b5f5ffd5b610092610188565b60405161009f91906109b4565b60405180910390f35b6100b0610226565b6040516100bd9190610a0c565b60405180910390f35b6100ce61024b565b6040516100db9190610a0c565b60405180910390f35b6100fe60048036038101906100f99190610a53565b61026f565b005b610108610822565b6040516101159190610a0c565b60405180910390f35b610126610847565b6040516101339190610a0c565b60405180910390f35b61015660048036038101906101519190610a53565b61086c565b6040516101639190610a98565b60405180910390f35b61018660048036038101906101819190610adb565b610889565b005b5f5f5f9054906101000a900473ffffffffffffffffffffffffffffffffffffffff1673ffffffffffffffffffffffffffffffffffffffff166370a08231306040518263ffffffff1660e01b81526004016101e29190610a0c565b602060405180830381865afa1580156101fd573d5f5f3e3d5ffd5b505050506040513d601f19601f820116820180604052508101906102219190610b2d565b905090565b60015f9054906101000a900473ffffffffffffffffffffffffffffffffffffffff1681565b5f5f9054906101000a900473ffffffffffffffffffffffffffffffffffffffff1681565b60045f8281526020019081526020015f205f9054906101000a900460ff16156102cd576040517f08c379a00000000000000000000000000000000000000000000000000000000081526004016102c490610bb2565b60405180910390fd5b5f5f5f60015f9054906101000a900473ffffffffffffffffffffffffffffffffffffffff1673ffffffffffffffffffffffffffffffffffffffff16631afce6e9856040518263ffffffff1660e01b815260040161032a91906109b4565b606060405180830381865afa158015610345573d5f5f3e3d5ffd5b505050506040513d601f19601f820116820180604052508101906103699190610be4565b9250925092503373ffffffffffffffffffffffffffffffffffffffff168373ffffffffffffffffffffffffffffffffffffffff16146103dd576040517f08c379a00000000000000000000000000000000000000000000000000000000081526004016103d490610c7e565b60405180910390fd5b60015f9054906101000a900473ffffffffffffffffffffffffffffffffffffffff1673ffffffffffffffffffffffffffffffffffffffff1663c526ee97856040518263ffffffff1660e01b815260040161043791906109b4565b602060405180830381865afa158015610452573d5f5f3e3d5ffd5b505050506040513d601f19601f820116820180604052508101906104769190610cc6565b6104b5576040517f08c379a00000000000000000000000000000000000000000000000000000000081526004016104ac90610d3b565b60405180910390fd5b62093a80816104c49190610d86565b421115610506576040517f08c379a00000000000000000000000000000000000000000000000000000000081526004016104fd90610e03565b60405180910390fd5b5f5f9054906101000a900473ffffffffffffffffffffffffffffffffffffffff1673ffffffffffffffffffffffffffffffffffffffff166370a08231306040518263ffffffff1660e01b815260040161055f9190610a0c565b602060405180830381865afa15801561057a573d5f5f3e3d5ffd5b505050506040513d601f19601f8201168201806040525081019061059e9190610b2d565b8211156106d4575f5f5f9054906101000a900473ffffffffffffffffffffffffffffffffffffffff1673ffffffffffffffffffffffffffffffffffffffff166370a08231306040518263ffffffff1660e01b81526004016105ff9190610a0c565b602060405180830381865afa15801561061a573d5f5f3e3d5ffd5b505050506040513d601f19601f8201168201806040525081019061063e9190610b2d565b836106499190610e21565b905060025f9054906101000a900473ffffffffffffffffffffffffffffffffffffffff1673ffffffffffffffffffffffffffffffffffffffff16632e1a7d4d826040518263ffffffff1660e01b81526004016106a591906109b4565b5f604051808303815f87803b1580156106bc575f5ffd5b505af11580156106ce573d5f5f3e3d5ffd5b50505050505b600160045f8681526020019081526020015f205f6101000a81548160ff0219169083151502179055505f5f9054906101000a900473ffffffffffffffffffffffffffffffffffffffff1673ffffffffffffffffffffffffffffffffffffffff1663a9059cbb84846040518363ffffffff1660e01b8152600401610758929190610e54565b6020604051808303815f875af1158015610774573d5f5f3e3d5ffd5b505050506040513d601f19601f820116820180604052508101906107989190610cc6565b6107d7576040517f08c379a00000000000000000000000000000000000000000000000000000000081526004016107ce90610ec5565b60405180910390fd5b818373ffffffffffffffffffffffffffffffffffffffff16857faf3c8fdd75d667f71d36d7840b8ef9086c516c9b047ad6a83a5a66151342123a60405160405180910390a450505050565b60035f9054906101000a900473ffffffffffffffffffffffffffffffffffffffff1681565b60025f9054906101000a900473ffffffffffffffffffffffffffffffffffffffff1681565b6004602052805f5260405f205f915054906101000a900460ff1681565b60035f9054906101000a900473ffffffffffffffffffffffffffffffffffffffff1673ffffffffffffffffffffffffffffffffffffffff163373ffffffffffffffffffffffffffffffffffffffff1614610918576040517f08c379a000000000000000000000000000000000000000000000000000000000815260040161090f90610f2d565b60405180910390fd5b8160015f6101000a81548173ffffffffffffffffffffffffffffffffffffffff021916908373ffffffffffffffffffffffffffffffffffffffff1602179055508060025f6101000a81548173ffffffffffffffffffffffffffffffffffffffff021916908373ffffffffffffffffffffffffffffffffffffffff1602179055505050565b5f819050919050565b6109ae8161099c565b82525050565b5f6020820190506109c75f8301846109a5565b92915050565b5f73ffffffffffffffffffffffffffffffffffffffff82169050919050565b5f6109f6826109cd565b9050919050565b610a06816109ec565b82525050565b5f602082019050610a1f5f8301846109fd565b92915050565b5f5ffd5b610a328161099c565b8114610a3c575f5ffd5b50565b5f81359050610a4d81610a29565b92915050565b5f60208284031215610a6857610a67610a25565b5b5f610a7584828501610a3f565b91505092915050565b5f8115159050919050565b610a9281610a7e565b82525050565b5f602082019050610aab5f830184610a89565b92915050565b610aba816109ec565b8114610ac4575f5ffd5b50565b5f81359050610ad581610ab1565b92915050565b5f5f60408385031215610af157610af0610a25565b5b5f610afe85828601610ac7565b9250506020610b0f85828601610ac7565b9150509250929050565b5f81519050610b2781610a29565b92915050565b5f60208284031215610b4257610b41610a25565b5b5f610b4f84828501610b19565b91505092915050565b5f82825260208201905092915050565b7f416c7265616479207061696400000000000000000000000000000000000000005f82015250565b5f610b9c600c83610b58565b9150610ba782610b68565b602082019050919050565b5f6020820190508181035f830152610bc981610b90565b9050919050565b5f81519050610bde81610ab1565b92915050565b5f5f5f60608486031215610bfb57610bfa610a25565b5b5f610c0886828701610bd0565b9350506020610c1986828701610b19565b9250506040610c2a86828701610b19565b9150509250925092565b7f4e6f7420636c61696d616e7400000000000000000000000000000000000000005f82015250565b5f610c68600c83610b58565b9150610c7382610c34565b602082019050919050565b5f6020820190508181035f830152610c9581610c5c565b9050919050565b610ca581610a7e565b8114610caf575f5ffd5b50565b5f81519050610cc081610c9c565b92915050565b5f60208284031215610cdb57610cda610a25565b5b5f610ce884828501610cb2565b91505092915050565b7f4e6f7420617070726f76656400000000000000000000000000000000000000005f82015250565b5f610d25600c83610b58565b9150610d3082610cf1565b602082019050919050565b5f6020820190508181035f830152610d5281610d19565b9050919050565b7f4e487b71000000000000000000000000000000000000000000000000000000005f52601160045260245ffd5b5f610d908261099c565b9150610d9b8361099c565b9250828201905080821115610db357610db2610d59565b5b92915050565b7f436c61696d2065787069726564000000000000000000000000000000000000005f82015250565b5f610ded600d83610b58565b9150610df882610db9565b602082019050919050565b5f6020820190508181035f830152610e1a81610de1565b9050919050565b5f610e2b8261099c565b9150610e368361099c565b9250828203905081811115610e4e57610e4d610d59565b5b92915050565b5f604082019050610e675f8301856109fd565b610e7460208301846109a5565b9392505050565b7f5061796f7574206661696c6564000000000000000000000000000000000000005f82015250565b5f610eaf600d83610b58565b9150610eba82610e7b565b602082019050919050565b5f6020820190508181035f830152610edc81610ea3565b9050919050565b7f4e6f74206f776e657200000000000000000000000000000000000000000000005f82015250565b5f610f17600983610b58565b9150610f2282610ee3565b602082019050919050565b5f6020820190508181035f830152610f4481610f0b565b905091905056fea2646970667358221220d70ef9b8a090daf464b57d3943156576c13ce5aec06f1f6c5dbd6bfb6e37cfa264736f6c634300081e0033","linkReferences":{}},"methodIdentifiers":{"claimExecuted(uint256)":"b29b189f","claimPayout(uint256)":"8a69614e","daoGovernance()":"3d4e5ddd","jagaStake()":"ae5183e9","owner()":"8da5cb5b","setConfig(address,address)":"b602024b","usdc()":"3e413bee","vaultBalance()":"0bf6cc08"},"id":27}