{"abi":[{"type":"constructor","inputs":[{"name":"_jagaToken","type":"address","internalType":"address"},{"name":"_insuranceManager","type":"address","internalType":"address"}],"stateMutability":"nonpayable"},{"type":"function","name":"THRESHOLD","inputs":[],"outputs":[{"name":"","type":"uint256","internalType":"uint256"}],"stateMutability":"view"},{"type":"function","name":"VOTING_PERIOD","inputs":[],"outputs":[{"name":"","type":"uint256","internalType":"uint256"}],"stateMutability":"view"},{"type":"function","name":"claimCounter","inputs":[],"outputs":[{"name":"","type":"uint256","internalType":"uint256"}],"stateMutability":"view"},{"type":"function","name":"claimOwner","inputs":[{"name":"","type":"uint256","internalType":"uint256"}],"outputs":[{"name":"","type":"address","internalType":"address"}],"stateMutability":"view"},{"type":"function","name":"claims","inputs":[{"name":"","type":"uint256","internalType":"uint256"}],"outputs":[{"name":"claimant","type":"address","internalType":"address"},{"name":"coveredAddress","type":"address","internalType":"address"},{"name":"tier","type":"uint256","internalType":"uint256"},{"name":"title","type":"string","internalType":"string"},{"name":"reason","type":"string","internalType":"string"},{"name":"claimType","type":"string","internalType":"string"},{"name":"amount","type":"uint256","internalType":"uint256"},{"name":"createdAt","type":"uint256","internalType":"uint256"},{"name":"yesVotes","type":"uint256","internalType":"uint256"},{"name":"noVotes","type":"uint256","internalType":"uint256"},{"name":"status","type":"uint8","internalType":"enum DAOGovernance.ClaimStatus"},{"name":"approvedAt","type":"uint256","internalType":"uint256"}],"stateMutability":"view"},{"type":"function","name":"executeVote","inputs":[{"name":"claimId","type":"uint256","internalType":"uint256"}],"outputs":[{"name":"yesRatio","type":"uint256","internalType":"uint256"}],"stateMutability":"nonpayable"},{"type":"function","name":"getClaimData","inputs":[{"name":"claimId","type":"uint256","internalType":"uint256"}],"outputs":[{"name":"","type":"address","internalType":"address"},{"name":"","type":"uint256","internalType":"uint256"},{"name":"","type":"uint256","internalType":"uint256"}],"stateMutability":"view"},{"type":"function","name":"getClaimStatus","inputs":[{"name":"claimId","type":"uint256","internalType":"uint256"}],"outputs":[{"name":"","type":"uint8","internalType":"enum DAOGovernance.ClaimStatus"}],"stateMutability":"view"},{"type":"function","name":"insuranceManager","inputs":[],"outputs":[{"name":"","type":"address","internalType":"address"}],"stateMutability":"view"},{"type":"function","name":"isClaimApproved","inputs":[{"name":"claimId","type":"uint256","internalType":"uint256"}],"outputs":[{"name":"","type":"bool","internalType":"bool"}],"stateMutability":"view"},{"type":"function","name":"jagaToken","inputs":[],"outputs":[{"name":"","type":"address","internalType":"contract IERC20"}],"stateMutability":"view"},{"type":"function","name":"minimumVotingPeriod","inputs":[],"outputs":[{"name":"","type":"uint256","internalType":"uint256"}],"stateMutability":"view"},{"type":"function","name":"owner","inputs":[],"outputs":[{"name":"","type":"address","internalType":"address"}],"stateMutability":"view"},{"type":"function","name":"setConfig","inputs":[{"name":"_jagaToken","type":"address","internalType":"address"},{"name":"_insuranceManager","type":"address","internalType":"address"}],"outputs":[],"stateMutability":"nonpayable"},{"type":"function","name":"setMinimumVotingPeriod","inputs":[{"name":"_minimumVotingPeriod","type":"uint256","internalType":"uint256"}],"outputs":[],"stateMutability":"nonpayable"},{"type":"function","name":"submitClaim","inputs":[{"name":"reason","type":"string","internalType":"string"},{"name":"title","type":"string","internalType":"string"},{"name":"claimType","type":"string","internalType":"string"},{"name":"amount","type":"uint256","internalType":"uint256"}],"outputs":[{"name":"","type":"uint256","internalType":"uint256"}],"stateMutability":"nonpayable"},{"type":"function","name":"vote","inputs":[{"name":"claimId","type":"uint256","internalType":"uint256"},{"name":"approve","type":"bool","internalType":"bool"}],"outputs":[],"stateMutability":"nonpayable"},{"type":"event","name":"ClaimApproved","inputs":[{"name":"claimId","type":"uint256","indexed":true,"internalType":"uint256"}],"anonymous":false},{"type":"event","name":"ClaimDisplay","inputs":[{"name":"title","type":"string","indexed":true,"internalType":"string"},{"name":"reason","type":"string","indexed":true,"internalType":"string"},{"name":"claimType","type":"string","indexed":true,"internalType":"string"}],"anonymous":false},{"type":"event","name":"ClaimRejected","inputs":[{"name":"claimId","type":"uint256","indexed":true,"internalType":"uint256"}],"anonymous":false},{"type":"event","name":"ClaimSubmitted","inputs":[{"name":"claimId","type":"uint256","indexed":true,"internalType":"uint256"},{"name":"claimant","type":"address","indexed":true,"internalType":"address"},{"name":"amount","type":"uint256","indexed":true,"internalType":"uint256"}],"anonymous":false},{"type":"event","name":"Voted","inputs":[{"name":"claimId","type":"uint256","indexed":true,"internalType":"uint256"},{"name":"voter","type":"address","indexed":true,"internalType":"address"},{"name":"approve","type":"bool","indexed":true,"internalType":"bool"},{"name":"weight","type":"uint256","indexed":false,"internalType":"uint256"}],"anonymous":false}],"bytecode":{"object":"0x608060405262069780600155348015610016575f5ffd5b5060405161244b38038061244b8339818101604052810190610038919061015c565b815f5f6101000a81548173ffffffffffffffffffffffffffffffffffffffff021916908373ffffffffffffffffffffffffffffffffffffffff1602179055508060025f6101000a81548173ffffffffffffffffffffffffffffffffffffffff021916908373ffffffffffffffffffffffffffffffffffffffff1602179055503360035f6101000a81548173ffffffffffffffffffffffffffffffffffffffff021916908373ffffffffffffffffffffffffffffffffffffffff160217905550505061019a565b5f5ffd5b5f73ffffffffffffffffffffffffffffffffffffffff82169050919050565b5f61012b82610102565b9050919050565b61013b81610121565b8114610145575f5ffd5b50565b5f8151905061015681610132565b92915050565b5f5f60408385031215610172576101716100fe565b5b5f61017f85828601610148565b925050602061019085828601610148565b9150509250929050565b6122a4806101a75f395ff3fe608060405234801561000f575f5ffd5b5060043610610109575f3560e01c8063a888c2cd116100a0578063b61c94b01161006f578063b61c94b0146102c6578063c526ee97146102f6578063c9d27afe14610326578063f3523fa414610342578063f98a4eca1461036057610109565b8063a888c2cd14610233578063b1610d7e1461026e578063b1c360ed1461028c578063b602024b146102aa57610109565b806338249a49116100dc57806338249a49146101bd5780634efa8f17146101d9578063785ffb37146101f75780638da5cb5b1461021557610109565b80631afce6e91461010d5780631d26f8421461013f5780632b538ac41461016f57806336dbd2f91461018d575b5f5ffd5b61012760048036038101906101229190611375565b610390565b604051610136939291906113ee565b60405180910390f35b61015960048036038101906101549190611484565b6103e2565b6040516101669190611548565b60405180910390f35b6101776107ac565b60405161018491906115bc565b60405180910390f35b6101a760048036038101906101a29190611375565b6107d0565b6040516101b49190611648565b60405180910390f35b6101d760048036038101906101d29190611375565b6107f9565b005b6101e1610892565b6040516101ee9190611548565b60405180910390f35b6101ff610898565b60405161020c9190611548565b60405180910390f35b61021d61089d565b60405161022a9190611661565b60405180910390f35b61024d60048036038101906102489190611375565b6108c2565b6040516102659c9b9a999897969594939291906116ea565b60405180910390f35b610276610afa565b6040516102839190611548565b60405180910390f35b610294610b01565b6040516102a19190611548565b60405180910390f35b6102c460048036038101906102bf91906117e1565b610b07565b005b6102e060048036038101906102db9190611375565b610c19565b6040516102ed9190611661565b60405180910390f35b610310600480360381019061030b9190611375565b610c49565b60405161031d9190611839565b60405180910390f35b610340600480360381019061033b919061187c565b610c99565b005b61034a611071565b6040516103579190611661565b60405180910390f35b61037a60048036038101906103759190611375565b611096565b6040516103879190611548565b60405180910390f35b5f5f5f5f60055f8681526020019081526020015f209050805f015f9054906101000a900473ffffffffffffffffffffffffffffffffffffffff16816006015482600b0154935093509350509193909250565b5f60025f9054906101000a900473ffffffffffffffffffffffffffffffffffffffff1673ffffffffffffffffffffffffffffffffffffffff16639f8a13d7336040518263ffffffff1660e01b815260040161043d9190611661565b602060405180830381865afa158015610458573d5f5f3e3d5ffd5b505050506040513d601f19601f8201168201806040525081019061047c91906118ce565b6104bb576040517f08c379a00000000000000000000000000000000000000000000000000000000081526004016104b290611943565b60405180910390fd5b5f5f60025f9054906101000a900473ffffffffffffffffffffffffffffffffffffffff1673ffffffffffffffffffffffffffffffffffffffff166320e98698336040518263ffffffff1660e01b81526004016105179190611661565b60a060405180830381865afa158015610532573d5f5f3e3d5ffd5b505050506040513d601f19601f820116820180604052508101906105569190611989565b509350935050505f60045f81548092919061057090611a2d565b9190505590505f60055f8381526020019081526020015f20905033815f015f6101000a81548173ffffffffffffffffffffffffffffffffffffffff021916908373ffffffffffffffffffffffffffffffffffffffff16021790555083816001015f6101000a81548173ffffffffffffffffffffffffffffffffffffffff021916908373ffffffffffffffffffffffffffffffffffffffff1602179055508281600201819055508989826003019182610629929190611c9f565b508b8b82600401918261063d929190611c9f565b508787826005019182610651929190611c9f565b508581600601819055504281600701819055505f81600a015f6101000a81548160ff0219169083600281111561068a576106896115d5565b5b02179055503360065f8481526020019081526020015f205f6101000a81548173ffffffffffffffffffffffffffffffffffffffff021916908373ffffffffffffffffffffffffffffffffffffffff160217905550853373ffffffffffffffffffffffffffffffffffffffff16837f01bc0f9d4f6b0c66e2bda5f433d9760d7eb48e89b73ffea517a7ba5e4fe0657d60405160405180910390a4806005016040516107349190611df6565b60405180910390208160040160405161074d9190611df6565b6040518091039020826003016040516107669190611df6565b60405180910390207fa9e0a4f8fffee47134bd638b7a8fcbd414f0a119f31ea53f04bad11f2e44eea760405160405180910390a481945050505050979650505050505050565b5f5f9054906101000a900473ffffffffffffffffffffffffffffffffffffffff1681565b5f60055f8381526020019081526020015f20600a015f9054906101000a900460ff169050919050565b60035f9054906101000a900473ffffffffffffffffffffffffffffffffffffffff1673ffffffffffffffffffffffffffffffffffffffff163373ffffffffffffffffffffffffffffffffffffffff1614610888576040517f08c379a000000000000000000000000000000000000000000000000000000000815260040161087f90611e56565b60405180910390fd5b8060018190555050565b60045481565b604281565b60035f9054906101000a900473ffffffffffffffffffffffffffffffffffffffff1681565b6005602052805f5260405f205f91509050805f015f9054906101000a900473ffffffffffffffffffffffffffffffffffffffff1690806001015f9054906101000a900473ffffffffffffffffffffffffffffffffffffffff169080600201549080600301805461093190611ad8565b80601f016020809104026020016040519081016040528092919081815260200182805461095d90611ad8565b80156109a85780601f1061097f576101008083540402835291602001916109a8565b820191905f5260205f20905b81548152906001019060200180831161098b57829003601f168201915b5050505050908060040180546109bd90611ad8565b80601f01602080910402602001604051908101604052809291908181526020018280546109e990611ad8565b8015610a345780601f10610a0b57610100808354040283529160200191610a34565b820191905f5260205f20905b815481529060010190602001808311610a1757829003601f168201915b505050505090806005018054610a4990611ad8565b80601f0160208091040260200160405190810160405280929190818152602001828054610a7590611ad8565b8015610ac05780601f10610a9757610100808354040283529160200191610ac0565b820191905f5260205f20905b815481529060010190602001808311610aa357829003601f168201915b50505050509080600601549080600701549080600801549080600901549080600a015f9054906101000a900460ff169080600b015490508c565b62093a8081565b60015481565b60035f9054906101000a900473ffffffffffffffffffffffffffffffffffffffff1673ffffffffffffffffffffffffffffffffffffffff163373ffffffffffffffffffffffffffffffffffffffff1614610b96576040517f08c379a0000000000000000000000000000000000000000000000000000000008152600401610b8d90611e56565b60405180910390fd5b815f5f6101000a81548173ffffffffffffffffffffffffffffffffffffffff021916908373ffffffffffffffffffffffffffffffffffffffff1602179055508060025f6101000a81548173ffffffffffffffffffffffffffffffffffffffff021916908373ffffffffffffffffffffffffffffffffffffffff1602179055505050565b6006602052805f5260405f205f915054906101000a900473ffffffffffffffffffffffffffffffffffffffff1681565b5f60016002811115610c5e57610c5d6115d5565b5b60055f8481526020019081526020015f20600a015f9054906101000a900460ff166002811115610c9157610c906115d5565b5b149050919050565b5f60055f8481526020019081526020015f2090505f6002811115610cc057610cbf6115d5565b5b81600a015f9054906101000a900460ff166002811115610ce357610ce26115d5565b5b14610d23576040517f08c379a0000000000000000000000000000000000000000000000000000000008152600401610d1a90611ebe565b60405180910390fd5b62093a808160070154610d369190611edc565b421115610d78576040517f08c379a0000000000000000000000000000000000000000000000000000000008152600401610d6f90611f59565b60405180910390fd5b5f81600c015f3373ffffffffffffffffffffffffffffffffffffffff1673ffffffffffffffffffffffffffffffffffffffff1681526020019081526020015f205f9054906101000a900460ff1690505f6002811115610dda57610dd96115d5565b5b816002811115610ded57610dec6115d5565b5b14610e2d576040517f08c379a0000000000000000000000000000000000000000000000000000000008152600401610e2490611fc1565b60405180910390fd5b5f5f5f9054906101000a900473ffffffffffffffffffffffffffffffffffffffff1673ffffffffffffffffffffffffffffffffffffffff166370a08231336040518263ffffffff1660e01b8152600401610e879190611661565b602060405180830381865afa158015610ea2573d5f5f3e3d5ffd5b505050506040513d601f19601f82011682018060405250810190610ec69190611fdf565b90505f8111610f0a576040517f08c379a0000000000000000000000000000000000000000000000000000000008152600401610f0190612054565b60405180910390fd5b8315610f965780836008015f828254610f239190611edc565b92505081905550600183600c015f3373ffffffffffffffffffffffffffffffffffffffff1673ffffffffffffffffffffffffffffffffffffffff1681526020019081526020015f205f6101000a81548160ff02191690836002811115610f8c57610f8b6115d5565b5b0217905550611018565b80836009015f828254610fa99190611edc565b92505081905550600283600c015f3373ffffffffffffffffffffffffffffffffffffffff1673ffffffffffffffffffffffffffffffffffffffff1681526020019081526020015f205f6101000a81548160ff02191690836002811115611012576110116115d5565b5b02179055505b8315153373ffffffffffffffffffffffffffffffffffffffff16867f7c2de587c00d75474a0c6c6fa96fd3b45dc974cd4e8a75f712bb84c950dce1b5846040516110629190611548565b60405180910390a45050505050565b60025f9054906101000a900473ffffffffffffffffffffffffffffffffffffffff1681565b5f5f60055f8481526020019081526020015f2090505f60028111156110be576110bd6115d5565b5b81600a015f9054906101000a900460ff1660028111156110e1576110e06115d5565b5b14611121576040517f08c379a0000000000000000000000000000000000000000000000000000000008152600401611118906120bc565b60405180910390fd5b5f816009015482600801546111369190611edc565b9050600154826007015461114a9190611edc565b42101561118c576040517f08c379a00000000000000000000000000000000000000000000000000000000081526004016111839061214a565b60405180910390fd5b62093a80826007015461119f9190611edc565b42111561120957600282600a015f6101000a81548160ff021916908360028111156111cd576111cc6115d5565b5b0217905550837f2aa44a1bb19392ef6a2fd220d2b1649a6dc1bebbfa2a6f2c496e2d39a3339d0e60405160405180910390a25f92505050611335565b5f810361124b576040517f08c379a0000000000000000000000000000000000000000000000000000000008152600401611242906121b2565b60405180910390fd5b806064836008015461125d91906121d0565b611267919061223e565b9250604283106112d857600182600a015f6101000a81548160ff02191690836002811115611298576112976115d5565b5b02179055504282600b0181905550837fd2d0ed0cccc8615643ade1eff3929a29ed8df75ebca85a3996e311c9b69e228960405160405180910390a2611332565b600282600a015f6101000a81548160ff021916908360028111156112ff576112fe6115d5565b5b0217905550837f2aa44a1bb19392ef6a2fd220d2b1649a6dc1bebbfa2a6f2c496e2d39a3339d0e60405160405180910390a25b50505b919050565b5f5ffd5b5f5ffd5b5f819050919050565b61135481611342565b811461135e575f5ffd5b50565b5f8135905061136f8161134b565b92915050565b5f6020828403121561138a5761138961133a565b5b5f61139784828501611361565b91505092915050565b5f73ffffffffffffffffffffffffffffffffffffffff82169050919050565b5f6113c9826113a0565b9050919050565b6113d9816113bf565b82525050565b6113e881611342565b82525050565b5f6060820190506114015f8301866113d0565b61140e60208301856113df565b61141b60408301846113df565b949350505050565b5f5ffd5b5f5ffd5b5f5ffd5b5f5f83601f84011261144457611443611423565b5b8235905067ffffffffffffffff81111561146157611460611427565b5b60208301915083600182028301111561147d5761147c61142b565b5b9250929050565b5f5f5f5f5f5f5f6080888a03121561149f5761149e61133a565b5b5f88013567ffffffffffffffff8111156114bc576114bb61133e565b5b6114c88a828b0161142f565b9750975050602088013567ffffffffffffffff8111156114eb576114ea61133e565b5b6114f78a828b0161142f565b9550955050604088013567ffffffffffffffff81111561151a5761151961133e565b5b6115268a828b0161142f565b935093505060606115398a828b01611361565b91505092959891949750929550565b5f60208201905061155b5f8301846113df565b92915050565b5f819050919050565b5f61158461157f61157a846113a0565b611561565b6113a0565b9050919050565b5f6115958261156a565b9050919050565b5f6115a68261158b565b9050919050565b6115b68161159c565b82525050565b5f6020820190506115cf5f8301846115ad565b92915050565b7f4e487b71000000000000000000000000000000000000000000000000000000005f52602160045260245ffd5b60038110611613576116126115d5565b5b50565b5f81905061162382611602565b919050565b5f61163282611616565b9050919050565b61164281611628565b82525050565b5f60208201905061165b5f830184611639565b92915050565b5f6020820190506116745f8301846113d0565b92915050565b5f81519050919050565b5f82825260208201905092915050565b8281835e5f83830152505050565b5f601f19601f8301169050919050565b5f6116bc8261167a565b6116c68185611684565b93506116d6818560208601611694565b6116df816116a2565b840191505092915050565b5f610180820190506116fe5f83018f6113d0565b61170b602083018e6113d0565b611718604083018d6113df565b818103606083015261172a818c6116b2565b9050818103608083015261173e818b6116b2565b905081810360a0830152611752818a6116b2565b905061176160c08301896113df565b61176e60e08301886113df565b61177c6101008301876113df565b61178a6101208301866113df565b611798610140830185611639565b6117a66101608301846113df565b9d9c50505050505050505050505050565b6117c0816113bf565b81146117ca575f5ffd5b50565b5f813590506117db816117b7565b92915050565b5f5f604083850312156117f7576117f661133a565b5b5f611804858286016117cd565b9250506020611815858286016117cd565b9150509250929050565b5f8115159050919050565b6118338161181f565b82525050565b5f60208201905061184c5f83018461182a565b92915050565b61185b8161181f565b8114611865575f5ffd5b50565b5f8135905061187681611852565b92915050565b5f5f604083850312156118925761189161133a565b5b5f61189f85828601611361565b92505060206118b085828601611868565b9150509250929050565b5f815190506118c881611852565b92915050565b5f602082840312156118e3576118e261133a565b5b5f6118f0848285016118ba565b91505092915050565b7f496e76616c6964205573657200000000000000000000000000000000000000005f82015250565b5f61192d600c83611684565b9150611938826118f9565b602082019050919050565b5f6020820190508181035f83015261195a81611921565b9050919050565b5f8151905061196f8161134b565b92915050565b5f81519050611983816117b7565b92915050565b5f5f5f5f5f60a086880312156119a2576119a161133a565b5b5f6119af88828901611961565b95505060206119c088828901611961565b94505060406119d188828901611975565b93505060606119e288828901611961565b92505060806119f3888289016118ba565b9150509295509295909350565b7f4e487b71000000000000000000000000000000000000000000000000000000005f52601160045260245ffd5b5f611a3782611342565b91507fffffffffffffffffffffffffffffffffffffffffffffffffffffffffffffffff8203611a6957611a68611a00565b5b600182019050919050565b5f82905092915050565b7f4e487b71000000000000000000000000000000000000000000000000000000005f52604160045260245ffd5b7f4e487b71000000000000000000000000000000000000000000000000000000005f52602260045260245ffd5b5f6002820490506001821680611aef57607f821691505b602082108103611b0257611b01611aab565b5b50919050565b5f819050815f5260205f209050919050565b5f6020601f8301049050919050565b5f82821b905092915050565b5f60088302611b647fffffffffffffffffffffffffffffffffffffffffffffffffffffffffffffffff82611b29565b611b6e8683611b29565b95508019841693508086168417925050509392505050565b5f611ba0611b9b611b9684611342565b611561565b611342565b9050919050565b5f819050919050565b611bb983611b86565b611bcd611bc582611ba7565b848454611b35565b825550505050565b5f5f905090565b611be4611bd5565b611bef818484611bb0565b505050565b5b81811015611c1257611c075f82611bdc565b600181019050611bf5565b5050565b601f821115611c5757611c2881611b08565b611c3184611b1a565b81016020851015611c40578190505b611c54611c4c85611b1a565b830182611bf4565b50505b505050565b5f82821c905092915050565b5f611c775f1984600802611c5c565b1980831691505092915050565b5f611c8f8383611c68565b9150826002028217905092915050565b611ca98383611a74565b67ffffffffffffffff811115611cc257611cc1611a7e565b5b611ccc8254611ad8565b611cd7828285611c16565b5f601f831160018114611d04575f8415611cf2578287013590505b611cfc8582611c84565b865550611d63565b601f198416611d1286611b08565b5f5b82811015611d3957848901358255600182019150602085019450602081019050611d14565b86831015611d565784890135611d52601f891682611c68565b8355505b6001600288020188555050505b50505050505050565b5f81905092915050565b5f8154611d8281611ad8565b611d8c8186611d6c565b9450600182165f8114611da65760018114611dbb57611ded565b60ff1983168652811515820286019350611ded565b611dc485611b08565b5f5b83811015611de557815481890152600182019150602081019050611dc6565b838801955050505b50505092915050565b5f611e018284611d76565b915081905092915050565b7f4e6f74206f776e657200000000000000000000000000000000000000000000005f82015250565b5f611e40600983611684565b9150611e4b82611e0c565b602082019050919050565b5f6020820190508181035f830152611e6d81611e34565b9050919050565b7f566f74696e6720636c6f736564000000000000000000000000000000000000005f82015250565b5f611ea8600d83611684565b9150611eb382611e74565b602082019050919050565b5f6020820190508181035f830152611ed581611e9c565b9050919050565b5f611ee682611342565b9150611ef183611342565b9250828201905080821115611f0957611f08611a00565b5b92915050565b7f566f74696e6720657870697265640000000000000000000000000000000000005f82015250565b5f611f43600e83611684565b9150611f4e82611f0f565b602082019050919050565b5f6020820190508181035f830152611f7081611f37565b9050919050565b7f416c726561647920766f746564000000000000000000000000000000000000005f82015250565b5f611fab600d83611684565b9150611fb682611f77565b602082019050919050565b5f6020820190508181035f830152611fd881611f9f565b9050919050565b5f60208284031215611ff457611ff361133a565b5b5f61200184828501611961565b91505092915050565b7f4e6f20766f74696e6720706f77657200000000000000000000000000000000005f82015250565b5f61203e600f83611684565b91506120498261200a565b602082019050919050565b5f6020820190508181035f83015261206b81612032565b9050919050565b7f416c7265616479206578656375746564000000000000000000000000000000005f82015250565b5f6120a6601083611684565b91506120b182612072565b602082019050919050565b5f6020820190508181035f8301526120d38161209a565b9050919050565b7f566f746520697320616c6c6f77656420746f20626520657865637574656420615f8201527f6674657220352064617973000000000000000000000000000000000000000000602082015250565b5f612134602b83611684565b915061213f826120da565b604082019050919050565b5f6020820190508181035f83015261216181612128565b9050919050565b7f4e6f2070617274696369706174696f6e000000000000000000000000000000005f82015250565b5f61219c601083611684565b91506121a782612168565b602082019050919050565b5f6020820190508181035f8301526121c981612190565b9050919050565b5f6121da82611342565b91506121e583611342565b92508282026121f381611342565b9150828204841483151761220a57612209611a00565b5b5092915050565b7f4e487b71000000000000000000000000000000000000000000000000000000005f52601260045260245ffd5b5f61224882611342565b915061225383611342565b92508261226357612262612211565b5b82820490509291505056fea2646970667358221220f634524f7da35eda270c2f2a3803ec54627e7469b5ea28d68e10f461ad4c983464736f6c634300081e0033","linkReferences":{}},"methodIdentifiers":{"THRESHOLD()":"785ffb37","VOTING_PERIOD()":"b1610d7e","claimCounter()":"4efa8f17","claimOwner(uint256)":"b61c94b0","claims(uint256)":"a888c2cd","executeVote(uint256)":"f98a4eca","getClaimData(uint256)":"1afce6e9","getClaimStatus(uint256)":"36dbd2f9","insuranceManager()":"f3523fa4","isClaimApproved(uint256)":"c526ee97","jagaToken()":"2b538ac4","minimumVotingPeriod()":"b1c360ed","owner()":"8da5cb5b","setConfig(address,address)":"b602024b","setMinimumVotingPeriod(uint256)":"38249a49","submitClaim(string,string,string,uint256)":"1d26f842","vote(uint256,bool)":"c9d27afe"},"id":28}