{"abi":[{"type":"constructor","inputs":[{"name":"morphoAddress","type":"address","internalType":"address"},{"name":"_usdc","type":"address","internalType":"address"}],"stateMutability":"nonpayable"},{"type":"function","name":"claim","inputs":[{"name":"distributor","type":"address","internalType":"address"},{"name":"user","type":"address","internalType":"address"},{"name":"asset","type":"address","internalType":"address"},{"name":"claimable","type":"uint256","internalType":"uint256"},{"name":"proof","type":"bytes32[]","internalType":"bytes32[]"}],"outputs":[{"name":"amount","type":"uint256","internalType":"uint256"}],"stateMutability":"nonpayable"},{"type":"function","name":"depositInVault","inputs":[{"name":"assets","type":"uint256","internalType":"uint256"}],"outputs":[{"name":"shares","type":"uint256","internalType":"uint256"}],"stateMutability":"nonpayable"},{"type":"function","name":"morphoVault","inputs":[],"outputs":[{"name":"","type":"address","internalType":"address"}],"stateMutability":"view"},{"type":"function","name":"owner","inputs":[],"outputs":[{"name":"","type":"address","internalType":"address"}],"stateMutability":"view"},{"type":"function","name":"redeemAllFromVault","inputs":[],"outputs":[{"name":"redeemed","type":"uint256","internalType":"uint256"}],"stateMutability":"nonpayable"},{"type":"function","name":"setMorphoVault","inputs":[{"name":"morphoAddress","type":"address","internalType":"address"}],"outputs":[],"stateMutability":"nonpayable"},{"type":"function","name":"totalReinvested","inputs":[],"outputs":[{"name":"","type":"uint256","internalType":"uint256"}],"stateMutability":"view"},{"type":"function","name":"usdc","inputs":[],"outputs":[{"name":"","type":"address","internalType":"address"}],"stateMutability":"view"},{"type":"function","name":"withdraw","inputs":[{"name":"to","type":"address","internalType":"address"},{"name":"amount","type":"uint256","internalType":"uint256"}],"outputs":[],"stateMutability":"nonpayable"},{"type":"function","name":"withdrawFromVaultAmount","inputs":[{"name":"assets","type":"uint256","internalType":"uint256"}],"outputs":[{"name":"redeemed","type":"uint256","internalType":"uint256"}],"stateMutability":"nonpayable"},{"type":"event","name":"Approved","inputs":[{"name":"vault","type":"address","indexed":true,"internalType":"address"},{"name":"amount","type":"uint256","indexed":true,"internalType":"uint256"}],"anonymous":false},{"type":"event","name":"Deposited","inputs":[{"name":"vault","type":"address","indexed":true,"internalType":"address"},{"name":"amount","type":"uint256","indexed":true,"internalType":"uint256"}],"anonymous":false},{"type":"event","name":"RedeemedFromVault","inputs":[{"name":"vault","type":"address","indexed":true,"internalType":"address"},{"name":"amount","type":"uint256","indexed":true,"internalType":"uint256"}],"anonymous":false},{"type":"event","name":"Withdrawn","inputs":[{"name":"to","type":"address","indexed":true,"internalType":"address"},{"name":"amount","type":"uint256","indexed":true,"internalType":"uint256"}],"anonymous":false},{"type":"event","name":"WithdrawnFromVault","inputs":[{"name":"vault","type":"address","indexed":true,"internalType":"address"},{"name":"amount","type":"uint256","indexed":true,"internalType":"uint256"}],"anonymous":false}],"bytecode":{"object":"0x60a060405234801561000f575f5ffd5b5060405161163e38038061163e83398181016040528101906100319190610149565b8073ffffffffffffffffffffffffffffffffffffffff1660808173ffffffffffffffffffffffffffffffffffffffff16815250503360025f6101000a81548173ffffffffffffffffffffffffffffffffffffffff021916908373ffffffffffffffffffffffffffffffffffffffff160217905550815f5f6101000a81548173ffffffffffffffffffffffffffffffffffffffff021916908373ffffffffffffffffffffffffffffffffffffffff1602179055505050610187565b5f5ffd5b5f73ffffffffffffffffffffffffffffffffffffffff82169050919050565b5f610118826100ef565b9050919050565b6101288161010e565b8114610132575f5ffd5b50565b5f815190506101438161011f565b92915050565b5f5f6040838503121561015f5761015e6100eb565b5b5f61016c85828601610135565b925050602061017d85828601610135565b9150509250929050565b6080516114986101a65f395f81816102000152610ab701526114985ff3fe608060405234801561000f575f5ffd5b506004361061009c575f3560e01c80638f9fe9c3116100645780638f9fe9c31461015a578063a21d1ade14610176578063aa37d610146101a6578063ca0b410c146101c4578063f3fef3a3146101e25761009c565b80633e413bee146100a05780635169379c146100be5780635b16cac0146100dc57806362a998271461010c5780638da5cb5b1461013c575b5f5ffd5b6100a86101fe565b6040516100b59190610e72565b60405180910390f35b6100c6610222565b6040516100d39190610e72565b60405180910390f35b6100f660048036038101906100f19190610ec6565b610246565b6040516101039190610f00565b60405180910390f35b61012660048036038101906101219190610ec6565b6103f6565b6040516101339190610f00565b60405180910390f35b6101446105cd565b6040516101519190610e72565b60405180910390f35b610174600480360381019061016f9190610f43565b6105f2565b005b610190600480360381019061018b9190610fcf565b6106c3565b60405161019d9190610f00565b60405180910390f35b6101ae6107e0565b6040516101bb9190610f00565b60405180910390f35b6101cc6107e6565b6040516101d99190610f00565b60405180910390f35b6101fc60048036038101906101f79190611065565b610a26565b005b7f000000000000000000000000000000000000000000000000000000000000000081565b5f5f9054906101000a900473ffffffffffffffffffffffffffffffffffffffff1681565b5f60025f9054906101000a900473ffffffffffffffffffffffffffffffffffffffff1673ffffffffffffffffffffffffffffffffffffffff163373ffffffffffffffffffffffffffffffffffffffff16146102d6576040517f08c379a00000000000000000000000000000000000000000000000000000000081526004016102cd906110fd565b60405180910390fd5b8160015f8282546102e79190611148565b925050819055505f5f9054906101000a900473ffffffffffffffffffffffffffffffffffffffff1673ffffffffffffffffffffffffffffffffffffffff1663b460af948330306040518463ffffffff1660e01b815260040161034b9392919061117b565b6020604051808303815f875af1158015610367573d5f5f3e3d5ffd5b505050506040513d601f19601f8201168201806040525081019061038b91906111c4565b9050815f5f9054906101000a900473ffffffffffffffffffffffffffffffffffffffff1673ffffffffffffffffffffffffffffffffffffffff167fd4bf7c08d085a114c22cdd06a9fdb35e6cdb4502c918bdc6f1548954e13b211660405160405180910390a3919050565b5f60025f9054906101000a900473ffffffffffffffffffffffffffffffffffffffff1673ffffffffffffffffffffffffffffffffffffffff163373ffffffffffffffffffffffffffffffffffffffff1614610486576040517f08c379a000000000000000000000000000000000000000000000000000000000815260040161047d906110fd565b60405180910390fd5b6104af5f5f9054906101000a900473ffffffffffffffffffffffffffffffffffffffff16610bd7565b8160015f8282546104c091906111ef565b925050819055505f5f9054906101000a900473ffffffffffffffffffffffffffffffffffffffff1673ffffffffffffffffffffffffffffffffffffffff16636e553f6583306040518363ffffffff1660e01b8152600401610522929190611222565b6020604051808303815f875af115801561053e573d5f5f3e3d5ffd5b505050506040513d601f19601f8201168201806040525081019061056291906111c4565b9050815f5f9054906101000a900473ffffffffffffffffffffffffffffffffffffffff1673ffffffffffffffffffffffffffffffffffffffff167f2da466a7b24304f47e87fa2e1e5a81b9831ce54fec19055ce277ca2f39ba42c460405160405180910390a3919050565b60025f9054906101000a900473ffffffffffffffffffffffffffffffffffffffff1681565b60025f9054906101000a900473ffffffffffffffffffffffffffffffffffffffff1673ffffffffffffffffffffffffffffffffffffffff163373ffffffffffffffffffffffffffffffffffffffff1614610681576040517f08c379a0000000000000000000000000000000000000000000000000000000008152600401610678906110fd565b60405180910390fd5b805f5f6101000a81548173ffffffffffffffffffffffffffffffffffffffff021916908373ffffffffffffffffffffffffffffffffffffffff16021790555050565b5f60025f9054906101000a900473ffffffffffffffffffffffffffffffffffffffff1673ffffffffffffffffffffffffffffffffffffffff163373ffffffffffffffffffffffffffffffffffffffff1614610753576040517f08c379a000000000000000000000000000000000000000000000000000000000815260040161074a906110fd565b60405180910390fd5b8673ffffffffffffffffffffffffffffffffffffffff1663fabed41287878787876040518663ffffffff1660e01b81526004016107949594939291906112c1565b6020604051808303815f875af11580156107b0573d5f5f3e3d5ffd5b505050506040513d601f19601f820116820180604052508101906107d491906111c4565b90509695505050505050565b60015481565b5f60025f9054906101000a900473ffffffffffffffffffffffffffffffffffffffff1673ffffffffffffffffffffffffffffffffffffffff163373ffffffffffffffffffffffffffffffffffffffff1614610876576040517f08c379a000000000000000000000000000000000000000000000000000000000815260040161086d906110fd565b60405180910390fd5b5f5f5f9054906101000a900473ffffffffffffffffffffffffffffffffffffffff1673ffffffffffffffffffffffffffffffffffffffff1663d905777e306040518263ffffffff1660e01b81526004016108d09190610e72565b602060405180830381865afa1580156108eb573d5f5f3e3d5ffd5b505050506040513d601f19601f8201168201806040525081019061090f91906111c4565b90505f60015490505f6001819055505f5f9054906101000a900473ffffffffffffffffffffffffffffffffffffffff1673ffffffffffffffffffffffffffffffffffffffff1663ba0876528330306040518463ffffffff1660e01b815260040161097b9392919061117b565b6020604051808303815f875af1158015610997573d5f5f3e3d5ffd5b505050506040513d601f19601f820116820180604052508101906109bb91906111c4565b9250805f5f9054906101000a900473ffffffffffffffffffffffffffffffffffffffff1673ffffffffffffffffffffffffffffffffffffffff167f4e7bf49cff37372ceb6da24720afcabd1e57399354b28625cfed41198350632b60405160405180910390a3505090565b60025f9054906101000a900473ffffffffffffffffffffffffffffffffffffffff1673ffffffffffffffffffffffffffffffffffffffff163373ffffffffffffffffffffffffffffffffffffffff1614610ab5576040517f08c379a0000000000000000000000000000000000000000000000000000000008152600401610aac906110fd565b60405180910390fd5b7f000000000000000000000000000000000000000000000000000000000000000073ffffffffffffffffffffffffffffffffffffffff1663a9059cbb83836040518363ffffffff1660e01b8152600401610b1092919061130d565b6020604051808303815f875af1158015610b2c573d5f5f3e3d5ffd5b505050506040513d601f19601f82011682018060405250810190610b509190611369565b610b8f576040517f08c379a0000000000000000000000000000000000000000000000000000000008152600401610b86906113de565b60405180910390fd5b808273ffffffffffffffffffffffffffffffffffffffff167f7084f5476618d8e60b11ef0d7d3f06914655adb8793e28ff7f018d4c76d505d560405160405180910390a35050565b5f8173ffffffffffffffffffffffffffffffffffffffff166338d52e0f6040518163ffffffff1660e01b8152600401602060405180830381865afa158015610c21573d5f5f3e3d5ffd5b505050506040513d601f19601f82011682018060405250810190610c459190611410565b73ffffffffffffffffffffffffffffffffffffffff1663dd62ed3e30846040518363ffffffff1660e01b8152600401610c7f92919061143b565b602060405180830381865afa158015610c9a573d5f5f3e3d5ffd5b505050506040513d601f19601f82011682018060405250810190610cbe91906111c4565b03610e30578073ffffffffffffffffffffffffffffffffffffffff166338d52e0f6040518163ffffffff1660e01b8152600401602060405180830381865afa158015610d0c573d5f5f3e3d5ffd5b505050506040513d601f19601f82011682018060405250810190610d309190611410565b73ffffffffffffffffffffffffffffffffffffffff1663095ea7b3827fffffffffffffffffffffffffffffffffffffffffffffffffffffffffffffffff6040518363ffffffff1660e01b8152600401610d8a92919061130d565b6020604051808303815f875af1158015610da6573d5f5f3e3d5ffd5b505050506040513d601f19601f82011682018060405250810190610dca9190611369565b507fffffffffffffffffffffffffffffffffffffffffffffffffffffffffffffffff8173ffffffffffffffffffffffffffffffffffffffff167ff13bfe0b6ec5df39265dccb0a01a09aa4162489c7a083dc6670bde0255d02ca760405160405180910390a35b50565b5f73ffffffffffffffffffffffffffffffffffffffff82169050919050565b5f610e5c82610e33565b9050919050565b610e6c81610e52565b82525050565b5f602082019050610e855f830184610e63565b92915050565b5f5ffd5b5f5ffd5b5f819050919050565b610ea581610e93565b8114610eaf575f5ffd5b50565b5f81359050610ec081610e9c565b92915050565b5f60208284031215610edb57610eda610e8b565b5b5f610ee884828501610eb2565b91505092915050565b610efa81610e93565b82525050565b5f602082019050610f135f830184610ef1565b92915050565b610f2281610e52565b8114610f2c575f5ffd5b50565b5f81359050610f3d81610f19565b92915050565b5f60208284031215610f5857610f57610e8b565b5b5f610f6584828501610f2f565b91505092915050565b5f5ffd5b5f5ffd5b5f5ffd5b5f5f83601f840112610f8f57610f8e610f6e565b5b8235905067ffffffffffffffff811115610fac57610fab610f72565b5b602083019150836020820283011115610fc857610fc7610f76565b5b9250929050565b5f5f5f5f5f5f60a08789031215610fe957610fe8610e8b565b5b5f610ff689828a01610f2f565b965050602061100789828a01610f2f565b955050604061101889828a01610f2f565b945050606061102989828a01610eb2565b935050608087013567ffffffffffffffff81111561104a57611049610e8f565b5b61105689828a01610f7a565b92509250509295509295509295565b5f5f6040838503121561107b5761107a610e8b565b5b5f61108885828601610f2f565b925050602061109985828601610eb2565b9150509250929050565b5f82825260208201905092915050565b7f4e6f74206f776e657200000000000000000000000000000000000000000000005f82015250565b5f6110e76009836110a3565b91506110f2826110b3565b602082019050919050565b5f6020820190508181035f830152611114816110db565b9050919050565b7f4e487b71000000000000000000000000000000000000000000000000000000005f52601160045260245ffd5b5f61115282610e93565b915061115d83610e93565b92508282039050818111156111755761117461111b565b5b92915050565b5f60608201905061118e5f830186610ef1565b61119b6020830185610e63565b6111a86040830184610e63565b949350505050565b5f815190506111be81610e9c565b92915050565b5f602082840312156111d9576111d8610e8b565b5b5f6111e6848285016111b0565b91505092915050565b5f6111f982610e93565b915061120483610e93565b925082820190508082111561121c5761121b61111b565b5b92915050565b5f6040820190506112355f830185610ef1565b6112426020830184610e63565b9392505050565b5f82825260208201905092915050565b5f5ffd5b82818337505050565b5f6112718385611249565b93507f07ffffffffffffffffffffffffffffffffffffffffffffffffffffffffffffff8311156112a4576112a3611259565b5b6020830292506112b583858461125d565b82840190509392505050565b5f6080820190506112d45f830188610e63565b6112e16020830187610e63565b6112ee6040830186610ef1565b8181036060830152611301818486611266565b90509695505050505050565b5f6040820190506113205f830185610e63565b61132d6020830184610ef1565b9392505050565b5f8115159050919050565b61134881611334565b8114611352575f5ffd5b50565b5f815190506113638161133f565b92915050565b5f6020828403121561137e5761137d610e8b565b5b5f61138b84828501611355565b91505092915050565b7f5769746864726177206661696c656400000000000000000000000000000000005f82015250565b5f6113c8600f836110a3565b91506113d382611394565b602082019050919050565b5f6020820190508181035f8301526113f5816113bc565b9050919050565b5f8151905061140a81610f19565b92915050565b5f6020828403121561142557611424610e8b565b5b5f611432848285016113fc565b91505092915050565b5f60408201905061144e5f830185610e63565b61145b6020830184610e63565b939250505056fea26469706673582212206d0d7ab9a9ef09474e26f1ee59c2fb5790f02e5bcfbb86f35b9fb59ac5b2b16f64736f6c634300081e0033","linkReferences":{}},"methodIdentifiers":{"claim(address,address,address,uint256,bytes32[])":"a21d1ade","depositInVault(uint256)":"62a99827","morphoVault()":"5169379c","owner()":"8da5cb5b","redeemAllFromVault()":"ca0b410c","setMorphoVault(address)":"8f9fe9c3","totalReinvested()":"aa37d610","usdc()":"3e413bee","withdraw(address,uint256)":"f3fef3a3","withdrawFromVaultAmount(uint256)":"5b16cac0"},"id":32}