{"abi":[{"type":"constructor","inputs":[{"name":"_usdc","type":"address","internalType":"address"},{"name":"_percentage1","type":"uint256","internalType":"uint256"},{"name":"_percentage2","type":"uint256","internalType":"uint256"},{"name":"_percentage3","type":"uint256","internalType":"uint256"},{"name":"_premiumDuration","type":"uint256","internalType":"uint256"}],"stateMutability":"nonpayable"},{"type":"function","name":"claimManagerContract","inputs":[],"outputs":[{"name":"","type":"address","internalType":"address"}],"stateMutability":"view"},{"type":"function","name":"getPriceFromAmountTier","inputs":[{"name":"amountToCover","type":"uint256","internalType":"uint256"},{"name":"tier","type":"uint256","internalType":"uint256"}],"outputs":[{"name":"","type":"uint256","internalType":"uint256"}],"stateMutability":"view"},{"type":"function","name":"isActive","inputs":[{"name":"user","type":"address","internalType":"address"}],"outputs":[{"name":"","type":"bool","internalType":"bool"}],"stateMutability":"view"},{"type":"function","name":"jagaStakeContract","inputs":[],"outputs":[{"name":"","type":"address","internalType":"address"}],"stateMutability":"view"},{"type":"function","name":"morphoReinvestContract","inputs":[],"outputs":[{"name":"","type":"address","internalType":"address"}],"stateMutability":"view"},{"type":"function","name":"owner","inputs":[],"outputs":[{"name":"","type":"address","internalType":"address"}],"stateMutability":"view"},{"type":"function","name":"payPremium","inputs":[{"name":"tier","type":"uint256","internalType":"uint256"},{"name":"duration","type":"uint256","internalType":"uint256"},{"name":"coveredAddress","type":"address","internalType":"address"},{"name":"amountToCover","type":"uint256","internalType":"uint256"}],"outputs":[],"stateMutability":"nonpayable"},{"type":"function","name":"policies","inputs":[{"name":"","type":"address","internalType":"address"}],"outputs":[{"name":"lastPaidAt","type":"uint256","internalType":"uint256"},{"name":"duration","type":"uint256","internalType":"uint256"},{"name":"coveredAddress","type":"address","internalType":"address"},{"name":"tier","type":"uint256","internalType":"uint256"},{"name":"active","type":"bool","internalType":"bool"},{"name":"amountToCover","type":"uint256","internalType":"uint256"}],"stateMutability":"view"},{"type":"function","name":"premiumDuration","inputs":[],"outputs":[{"name":"","type":"uint256","internalType":"uint256"}],"stateMutability":"view"},{"type":"function","name":"setApproval","inputs":[{"name":"amount","type":"uint256","internalType":"uint256"}],"outputs":[],"stateMutability":"nonpayable"},{"type":"function","name":"setConfig","inputs":[{"name":"_jagaStake","type":"address","internalType":"address"},{"name":"_claimManager","type":"address","internalType":"address"},{"name":"_morphoReinvest","type":"address","internalType":"address"}],"outputs":[],"stateMutability":"nonpayable"},{"type":"function","name":"tierToPercentage","inputs":[{"name":"","type":"uint256","internalType":"uint256"}],"outputs":[{"name":"","type":"uint256","internalType":"uint256"}],"stateMutability":"view"},{"type":"function","name":"totalCollected","inputs":[],"outputs":[{"name":"","type":"uint256","internalType":"uint256"}],"stateMutability":"view"},{"type":"function","name":"totalUser","inputs":[],"outputs":[{"name":"","type":"uint256","internalType":"uint256"}],"stateMutability":"view"},{"type":"function","name":"transferRevenue","inputs":[{"name":"balance","type":"uint256","internalType":"uint256"}],"outputs":[],"stateMutability":"nonpayable"},{"type":"function","name":"usdc","inputs":[],"outputs":[{"name":"","type":"address","internalType":"contract IERC20"}],"stateMutability":"view"},{"type":"event","name":"PremiumPaid","inputs":[{"name":"user","type":"address","indexed":true,"internalType":"address"},{"name":"amount","type":"uint256","indexed":true,"internalType":"uint256"}],"anonymous":false},{"type":"event","name":"RevenueTransferred","inputs":[{"name":"amount","type":"uint256","indexed":true,"internalType":"uint256"}],"anonymous":false}],"bytecode":{"object":"0x608060405234801561000f575f5ffd5b50604051611a9f380380611a9f83398181016040528101906100319190610197565b335f5f6101000a81548173ffffffffffffffffffffffffffffffffffffffff021916908373ffffffffffffffffffffffffffffffffffffffff1602179055508460065f6101000a81548173ffffffffffffffffffffffffffffffffffffffff021916908373ffffffffffffffffffffffffffffffffffffffff1602179055508360085f600181526020019081526020015f20819055508260085f600281526020019081526020015f20819055508160085f600381526020019081526020015f208190555080600481905550505050505061020e565b5f5ffd5b5f73ffffffffffffffffffffffffffffffffffffffff82169050919050565b5f6101338261010a565b9050919050565b61014381610129565b811461014d575f5ffd5b50565b5f8151905061015e8161013a565b92915050565b5f819050919050565b61017681610164565b8114610180575f5ffd5b50565b5f815190506101918161016d565b92915050565b5f5f5f5f5f60a086880312156101b0576101af610106565b5b5f6101bd88828901610150565b95505060206101ce88828901610183565b94505060406101df88828901610183565b93505060606101f088828901610183565b925050608061020188828901610183565b9150509295509295909350565b6118848061021b5f395ff3fe608060405234801561000f575f5ffd5b50600436106100fe575f3560e01c8063707af0f211610095578063cea5127f11610064578063cea5127f1461028b578063e1604b70146102bb578063e29eb836146102d9578063ff9d3903146102f7576100fe565b8063707af0f2146102035780638da5cb5b1461022157806397541c321461023f5780639f8a13d71461025b576100fe565b80633141e25b116100d15780633141e25b146101915780633e413bee146101ad57806367e55b4f146101cb57806370094906146101e7576100fe565b8063118382a7146101025780631362ba221461012057806320e986981461013e57806325d9dcf814610173575b5f5ffd5b61010a610327565b604051610117919061118d565b60405180910390f35b61012861034c565b60405161013591906111be565b60405180910390f35b61015860048036038101906101539190611205565b610352565b60405161016a9695949392919061124a565b60405180910390f35b61017b6103b5565b604051610188919061118d565b60405180910390f35b6101ab60048036038101906101a691906112a9565b6103da565b005b6101b561052d565b6040516101c29190611354565b60405180910390f35b6101e560048036038101906101e09190611397565b610552565b005b61020160048036038101906101fc91906113c2565b610a2d565b005b61020b610e47565b604051610218919061118d565b60405180910390f35b610229610e6c565b604051610236919061118d565b60405180910390f35b61025960048036038101906102549190611397565b610e90565b005b61027560048036038101906102709190611205565b610fdf565b6040516102829190611426565b60405180910390f35b6102a560048036038101906102a0919061143f565b6110f9565b6040516102b291906111be565b60405180910390f35b6102c361112d565b6040516102d091906111be565b60405180910390f35b6102e1611133565b6040516102ee91906111be565b60405180910390f35b610311600480360381019061030c9190611397565b611139565b60405161031e91906111be565b60405180910390f35b60015f9054906101000a900473ffffffffffffffffffffffffffffffffffffffff1681565b60045481565b6007602052805f5260405f205f91509050805f015490806001015490806002015f9054906101000a900473ffffffffffffffffffffffffffffffffffffffff1690806003015490806004015f9054906101000a900460ff16908060050154905086565b60035f9054906101000a900473ffffffffffffffffffffffffffffffffffffffff1681565b5f5f9054906101000a900473ffffffffffffffffffffffffffffffffffffffff1673ffffffffffffffffffffffffffffffffffffffff163373ffffffffffffffffffffffffffffffffffffffff1614610468576040517f08c379a000000000000000000000000000000000000000000000000000000000815260040161045f906114d7565b60405180910390fd5b8260015f6101000a81548173ffffffffffffffffffffffffffffffffffffffff021916908373ffffffffffffffffffffffffffffffffffffffff1602179055508160025f6101000a81548173ffffffffffffffffffffffffffffffffffffffff021916908373ffffffffffffffffffffffffffffffffffffffff1602179055508060035f6101000a81548173ffffffffffffffffffffffffffffffffffffffff021916908373ffffffffffffffffffffffffffffffffffffffff160217905550505050565b60065f9054906101000a900473ffffffffffffffffffffffffffffffffffffffff1681565b5f5f9054906101000a900473ffffffffffffffffffffffffffffffffffffffff1673ffffffffffffffffffffffffffffffffffffffff163373ffffffffffffffffffffffffffffffffffffffff16146105e0576040517f08c379a00000000000000000000000000000000000000000000000000000000081526004016105d7906114d7565b60405180910390fd5b5f60065f9054906101000a900473ffffffffffffffffffffffffffffffffffffffff1673ffffffffffffffffffffffffffffffffffffffff166370a08231306040518263ffffffff1660e01b815260040161063b919061118d565b602060405180830381865afa158015610656573d5f5f3e3d5ffd5b505050506040513d601f19601f8201168201806040525081019061067a9190611509565b9050818110156106bf576040517f08c379a00000000000000000000000000000000000000000000000000000000081526004016106b69061157e565b60405180910390fd5b5f606483601e6106cf91906115c9565b6106d99190611637565b90505f60648460146106eb91906115c9565b6106f59190611637565b90505f606485601961070791906115c9565b6107119190611637565b90505f8183856107219190611667565b61072b9190611667565b86610736919061169a565b905060015f9054906101000a900473ffffffffffffffffffffffffffffffffffffffff1673ffffffffffffffffffffffffffffffffffffffff16633c6b16ab856040518263ffffffff1660e01b815260040161079291906111be565b5f604051808303815f87803b1580156107a9575f5ffd5b505af11580156107bb573d5f5f3e3d5ffd5b5050505060065f9054906101000a900473ffffffffffffffffffffffffffffffffffffffff1673ffffffffffffffffffffffffffffffffffffffff1663a9059cbb5f5f9054906101000a900473ffffffffffffffffffffffffffffffffffffffff16856040518363ffffffff1660e01b815260040161083b9291906116cd565b6020604051808303815f875af1158015610857573d5f5f3e3d5ffd5b505050506040513d601f19601f8201168201806040525081019061087b919061171e565b5060065f9054906101000a900473ffffffffffffffffffffffffffffffffffffffff1673ffffffffffffffffffffffffffffffffffffffff1663a9059cbb60025f9054906101000a900473ffffffffffffffffffffffffffffffffffffffff16846040518363ffffffff1660e01b81526004016108f99291906116cd565b6020604051808303815f875af1158015610915573d5f5f3e3d5ffd5b505050506040513d601f19601f82011682018060405250810190610939919061171e565b5060065f9054906101000a900473ffffffffffffffffffffffffffffffffffffffff1673ffffffffffffffffffffffffffffffffffffffff1663a9059cbb60035f9054906101000a900473ffffffffffffffffffffffffffffffffffffffff16836040518363ffffffff1660e01b81526004016109b79291906116cd565b6020604051808303815f875af11580156109d3573d5f5f3e3d5ffd5b505050506040513d601f19601f820116820180604052508101906109f7919061171e565b50857f39eb33dd67e27a3c5bc9a2cf81ba2465d1908cf85a5f927589bb61e4bc7ce6c460405160405180910390a2505050505050565b5f60085f8681526020019081526020015f205403610a80576040517f08c379a0000000000000000000000000000000000000000000000000000000008152600401610a7790611793565b60405180910390fd5b5f620186a060085f8781526020019081526020015f205483610aa291906115c9565b610aac9190611637565b90504260075f3373ffffffffffffffffffffffffffffffffffffffff1673ffffffffffffffffffffffffffffffffffffffff1681526020019081526020015f205f0181905550600160075f3373ffffffffffffffffffffffffffffffffffffffff1673ffffffffffffffffffffffffffffffffffffffff1681526020019081526020015f206004015f6101000a81548160ff0219169083151502179055508360075f3373ffffffffffffffffffffffffffffffffffffffff1673ffffffffffffffffffffffffffffffffffffffff1681526020019081526020015f20600101819055508260075f3373ffffffffffffffffffffffffffffffffffffffff1673ffffffffffffffffffffffffffffffffffffffff1681526020019081526020015f206002015f6101000a81548173ffffffffffffffffffffffffffffffffffffffff021916908373ffffffffffffffffffffffffffffffffffffffff1602179055508460075f3373ffffffffffffffffffffffffffffffffffffffff1673ffffffffffffffffffffffffffffffffffffffff1681526020019081526020015f20600301819055508160075f3373ffffffffffffffffffffffffffffffffffffffff1673ffffffffffffffffffffffffffffffffffffffff1681526020019081526020015f20600501819055508060095f828254610ca89190611667565b925050819055505f60075f3373ffffffffffffffffffffffffffffffffffffffff1673ffffffffffffffffffffffffffffffffffffffff1681526020019081526020015f205f015403610d0f57600160055f828254610d079190611667565b925050819055505b5f8482610d1c91906115c9565b905060065f9054906101000a900473ffffffffffffffffffffffffffffffffffffffff1673ffffffffffffffffffffffffffffffffffffffff166323b872dd3330846040518463ffffffff1660e01b8152600401610d7c939291906117b1565b6020604051808303815f875af1158015610d98573d5f5f3e3d5ffd5b505050506040513d601f19601f82011682018060405250810190610dbc919061171e565b610dfb576040517f08c379a0000000000000000000000000000000000000000000000000000000008152600401610df290611830565b60405180910390fd5b813373ffffffffffffffffffffffffffffffffffffffff167fa21795436a9f6a3b412fd6780f01a49907f2181e76e938496b0a41991d99b61c60405160405180910390a3505050505050565b60025f9054906101000a900473ffffffffffffffffffffffffffffffffffffffff1681565b5f5f9054906101000a900473ffffffffffffffffffffffffffffffffffffffff1681565b5f5f9054906101000a900473ffffffffffffffffffffffffffffffffffffffff1673ffffffffffffffffffffffffffffffffffffffff163373ffffffffffffffffffffffffffffffffffffffff1614610f1e576040517f08c379a0000000000000000000000000000000000000000000000000000000008152600401610f15906114d7565b60405180910390fd5b60065f9054906101000a900473ffffffffffffffffffffffffffffffffffffffff1673ffffffffffffffffffffffffffffffffffffffff1663095ea7b360015f9054906101000a900473ffffffffffffffffffffffffffffffffffffffff16836040518363ffffffff1660e01b8152600401610f9b9291906116cd565b6020604051808303815f875af1158015610fb7573d5f5f3e3d5ffd5b505050506040513d601f19601f82011682018060405250810190610fdb919061171e565b5050565b5f5f60075f8473ffffffffffffffffffffffffffffffffffffffff1673ffffffffffffffffffffffffffffffffffffffff1681526020019081526020015f206040518060c00160405290815f820154815260200160018201548152602001600282015f9054906101000a900473ffffffffffffffffffffffffffffffffffffffff1673ffffffffffffffffffffffffffffffffffffffff1673ffffffffffffffffffffffffffffffffffffffff16815260200160038201548152602001600482015f9054906101000a900460ff161515151581526020016005820154815250509050806080015180156110f1575080602001516004546110df91906115c9565b815f01516110ed9190611667565b4211155b915050919050565b5f620186a060085f8481526020019081526020015f20548461111b91906115c9565b6111259190611637565b905092915050565b60055481565b60095481565b6008602052805f5260405f205f915090505481565b5f73ffffffffffffffffffffffffffffffffffffffff82169050919050565b5f6111778261114e565b9050919050565b6111878161116d565b82525050565b5f6020820190506111a05f83018461117e565b92915050565b5f819050919050565b6111b8816111a6565b82525050565b5f6020820190506111d15f8301846111af565b92915050565b5f5ffd5b6111e48161116d565b81146111ee575f5ffd5b50565b5f813590506111ff816111db565b92915050565b5f6020828403121561121a576112196111d7565b5b5f611227848285016111f1565b91505092915050565b5f8115159050919050565b61124481611230565b82525050565b5f60c08201905061125d5f8301896111af565b61126a60208301886111af565b611277604083018761117e565b61128460608301866111af565b611291608083018561123b565b61129e60a08301846111af565b979650505050505050565b5f5f5f606084860312156112c0576112bf6111d7565b5b5f6112cd868287016111f1565b93505060206112de868287016111f1565b92505060406112ef868287016111f1565b9150509250925092565b5f819050919050565b5f61131c6113176113128461114e565b6112f9565b61114e565b9050919050565b5f61132d82611302565b9050919050565b5f61133e82611323565b9050919050565b61134e81611334565b82525050565b5f6020820190506113675f830184611345565b92915050565b611376816111a6565b8114611380575f5ffd5b50565b5f813590506113918161136d565b92915050565b5f602082840312156113ac576113ab6111d7565b5b5f6113b984828501611383565b91505092915050565b5f5f5f5f608085870312156113da576113d96111d7565b5b5f6113e787828801611383565b94505060206113f887828801611383565b9350506040611409878288016111f1565b925050606061141a87828801611383565b91505092959194509250565b5f6020820190506114395f83018461123b565b92915050565b5f5f60408385031215611455576114546111d7565b5b5f61146285828601611383565b925050602061147385828601611383565b9150509250929050565b5f82825260208201905092915050565b7f4e6f74206f776e657200000000000000000000000000000000000000000000005f82015250565b5f6114c160098361147d565b91506114cc8261148d565b602082019050919050565b5f6020820190508181035f8301526114ee816114b5565b9050919050565b5f815190506115038161136d565b92915050565b5f6020828403121561151e5761151d6111d7565b5b5f61152b848285016114f5565b91505092915050565b7f4e6f20726576656e7565000000000000000000000000000000000000000000005f82015250565b5f611568600a8361147d565b915061157382611534565b602082019050919050565b5f6020820190508181035f8301526115958161155c565b9050919050565b7f4e487b71000000000000000000000000000000000000000000000000000000005f52601160045260245ffd5b5f6115d3826111a6565b91506115de836111a6565b92508282026115ec816111a6565b915082820484148315176116035761160261159c565b5b5092915050565b7f4e487b71000000000000000000000000000000000000000000000000000000005f52601260045260245ffd5b5f611641826111a6565b915061164c836111a6565b92508261165c5761165b61160a565b5b828204905092915050565b5f611671826111a6565b915061167c836111a6565b92508282019050808211156116945761169361159c565b5b92915050565b5f6116a4826111a6565b91506116af836111a6565b92508282039050818111156116c7576116c661159c565b5b92915050565b5f6040820190506116e05f83018561117e565b6116ed60208301846111af565b9392505050565b6116fd81611230565b8114611707575f5ffd5b50565b5f81519050611718816116f4565b92915050565b5f60208284031215611733576117326111d7565b5b5f6117408482850161170a565b91505092915050565b7f5469657220697320696e76616c696400000000000000000000000000000000005f82015250565b5f61177d600f8361147d565b915061178882611749565b602082019050919050565b5f6020820190508181035f8301526117aa81611771565b9050919050565b5f6060820190506117c45f83018661117e565b6117d1602083018561117e565b6117de60408301846111af565b949350505050565b7f5472616e73666572206661696c656400000000000000000000000000000000005f82015250565b5f61181a600f8361147d565b9150611825826117e6565b602082019050919050565b5f6020820190508181035f8301526118478161180e565b905091905056fea2646970667358221220643dc1e68eed073bc70b3a8b40dfd817c22c499ccba6edeb8b004e80c5aa3e4a64736f6c634300081e0033","linkReferences":{}},"methodIdentifiers":{"claimManagerContract()":"707af0f2","getPriceFromAmountTier(uint256,uint256)":"cea5127f","isActive(address)":"9f8a13d7","jagaStakeContract()":"118382a7","morphoReinvestContract()":"25d9dcf8","owner()":"8da5cb5b","payPremium(uint256,uint256,address,uint256)":"70094906","policies(address)":"20e98698","premiumDuration()":"1362ba22","setApproval(uint256)":"97541c32","setConfig(address,address,address)":"3141e25b","tierToPercentage(uint256)":"ff9d3903","totalCollected()":"e29eb836","totalUser()":"e1604b70","transferRevenue(uint256)":"67e55b4f","usdc()":"3e413bee"},"id":29}