{"abi":[{"type":"constructor","inputs":[{"name":"assetAddress","type":"address","internalType":"address"}],"stateMutability":"nonpayable"},{"type":"function","name":"_asset","inputs":[],"outputs":[{"name":"","type":"address","internalType":"contract IERC20"}],"stateMutability":"view"},{"type":"function","name":"asset","inputs":[],"outputs":[{"name":"","type":"address","internalType":"address"}],"stateMutability":"view"},{"type":"function","name":"balances","inputs":[{"name":"","type":"address","internalType":"address"}],"outputs":[{"name":"","type":"uint256","internalType":"uint256"}],"stateMutability":"view"},{"type":"function","name":"deposit","inputs":[{"name":"assets","type":"uint256","internalType":"uint256"},{"name":"receiver","type":"address","internalType":"address"}],"outputs":[{"name":"shares","type":"uint256","internalType":"uint256"}],"stateMutability":"nonpayable"},{"type":"function","name":"maxRedeem","inputs":[{"name":"owner","type":"address","internalType":"address"}],"outputs":[{"name":"","type":"uint256","internalType":"uint256"}],"stateMutability":"view"},{"type":"function","name":"redeem","inputs":[{"name":"shares","type":"uint256","internalType":"uint256"},{"name":"receiver","type":"address","internalType":"address"},{"name":"owner","type":"address","internalType":"address"}],"outputs":[{"name":"assets","type":"uint256","internalType":"uint256"}],"stateMutability":"nonpayable"},{"type":"function","name":"totalAssets","inputs":[],"outputs":[{"name":"","type":"uint256","internalType":"uint256"}],"stateMutability":"view"},{"type":"function","name":"withdraw","inputs":[{"name":"assets","type":"uint256","internalType":"uint256"},{"name":"receiver","type":"address","internalType":"address"},{"name":"owner","type":"address","internalType":"address"}],"outputs":[{"name":"shares","type":"uint256","internalType":"uint256"}],"stateMutability":"nonpayable"}],"bytecode":{"object":"0x60a060405234801561000f575f5ffd5b50604051610c90380380610c90833981810160405281019061003191906100c9565b8073ffffffffffffffffffffffffffffffffffffffff1660808173ffffffffffffffffffffffffffffffffffffffff1681525050506100f4565b5f5ffd5b5f73ffffffffffffffffffffffffffffffffffffffff82169050919050565b5f6100988261006f565b9050919050565b6100a88161008e565b81146100b2575f5ffd5b50565b5f815190506100c38161009f565b92915050565b5f602082840312156100de576100dd61006b565b5b5f6100eb848285016100b5565b91505092915050565b608051610b686101285f395f81816101f10152818161021b01528181610419015281816105ac01526106d30152610b685ff3fe608060405234801561000f575f5ffd5b5060043610610086575f3560e01c8063b460af9411610059578063b460af9414610126578063ba08765214610156578063d905777e14610186578063fcea5e29146101b657610086565b806301e1d1141461008a57806327e235e3146100a857806338d52e0f146100d85780636e553f65146100f6575b5f5ffd5b6100926101d4565b60405161009f919061070d565b60405180910390f35b6100c260048036038101906100bd9190610784565b6101d9565b6040516100cf919061070d565b60405180910390f35b6100e06101ee565b6040516100ed91906107be565b60405180910390f35b610110600480360381019061010b9190610801565b610215565b60405161011d919061070d565b60405180910390f35b610140600480360381019061013b919061083f565b610365565b60405161014d919061070d565b60405180910390f35b610170600480360381019061016b919061083f565b6104f8565b60405161017d919061070d565b60405180910390f35b6101a0600480360381019061019b9190610784565b61068b565b6040516101ad919061070d565b60405180910390f35b6101be6106d1565b6040516101cb91906108ea565b60405180910390f35b5f5481565b6001602052805f5260405f205f915090505481565b5f7f0000000000000000000000000000000000000000000000000000000000000000905090565b5f8290507f000000000000000000000000000000000000000000000000000000000000000073ffffffffffffffffffffffffffffffffffffffff166323b872dd3330866040518463ffffffff1660e01b815260040161027693929190610903565b6020604051808303815f875af1158015610292573d5f5f3e3d5ffd5b505050506040513d601f19601f820116820180604052508101906102b6919061096d565b6102f5576040517f08c379a00000000000000000000000000000000000000000000000000000000081526004016102ec906109f2565b60405180910390fd5b8060015f8473ffffffffffffffffffffffffffffffffffffffff1673ffffffffffffffffffffffffffffffffffffffff1681526020019081526020015f205f8282546103419190610a3d565b92505081905550825f5f8282546103589190610a3d565b9250508190555092915050565b5f839050805f5410156103ad576040517f08c379a00000000000000000000000000000000000000000000000000000000081526004016103a490610aba565b60405180910390fd5b8060015f8473ffffffffffffffffffffffffffffffffffffffff1673ffffffffffffffffffffffffffffffffffffffff1681526020019081526020015f205f8282546103f99190610ad8565b92505081905550805f5f8282546104109190610ad8565b925050819055507f000000000000000000000000000000000000000000000000000000000000000073ffffffffffffffffffffffffffffffffffffffff1663a9059cbb84836040518363ffffffff1660e01b8152600401610472929190610b0b565b6020604051808303815f875af115801561048e573d5f5f3e3d5ffd5b505050506040513d601f19601f820116820180604052508101906104b2919061096d565b6104f1576040517f08c379a00000000000000000000000000000000000000000000000000000000081526004016104e8906109f2565b60405180910390fd5b9392505050565b5f839050835f541015610540576040517f08c379a000000000000000000000000000000000000000000000000000000000815260040161053790610aba565b60405180910390fd5b8360015f8473ffffffffffffffffffffffffffffffffffffffff1673ffffffffffffffffffffffffffffffffffffffff1681526020019081526020015f205f82825461058c9190610ad8565b92505081905550835f5f8282546105a39190610ad8565b925050819055507f000000000000000000000000000000000000000000000000000000000000000073ffffffffffffffffffffffffffffffffffffffff1663a9059cbb84866040518363ffffffff1660e01b8152600401610605929190610b0b565b6020604051808303815f875af1158015610621573d5f5f3e3d5ffd5b505050506040513d601f19601f82011682018060405250810190610645919061096d565b610684576040517f08c379a000000000000000000000000000000000000000000000000000000000815260040161067b906109f2565b60405180910390fd5b9392505050565b5f60015f8373ffffffffffffffffffffffffffffffffffffffff1673ffffffffffffffffffffffffffffffffffffffff1681526020019081526020015f20549050919050565b7f000000000000000000000000000000000000000000000000000000000000000081565b5f819050919050565b610707816106f5565b82525050565b5f6020820190506107205f8301846106fe565b92915050565b5f5ffd5b5f73ffffffffffffffffffffffffffffffffffffffff82169050919050565b5f6107538261072a565b9050919050565b61076381610749565b811461076d575f5ffd5b50565b5f8135905061077e8161075a565b92915050565b5f6020828403121561079957610798610726565b5b5f6107a684828501610770565b91505092915050565b6107b881610749565b82525050565b5f6020820190506107d15f8301846107af565b92915050565b6107e0816106f5565b81146107ea575f5ffd5b50565b5f813590506107fb816107d7565b92915050565b5f5f6040838503121561081757610816610726565b5b5f610824858286016107ed565b925050602061083585828601610770565b9150509250929050565b5f5f5f6060848603121561085657610855610726565b5b5f610863868287016107ed565b935050602061087486828701610770565b925050604061088586828701610770565b9150509250925092565b5f819050919050565b5f6108b26108ad6108a88461072a565b61088f565b61072a565b9050919050565b5f6108c382610898565b9050919050565b5f6108d4826108b9565b9050919050565b6108e4816108ca565b82525050565b5f6020820190506108fd5f8301846108db565b92915050565b5f6060820190506109165f8301866107af565b61092360208301856107af565b61093060408301846106fe565b949350505050565b5f8115159050919050565b61094c81610938565b8114610956575f5ffd5b50565b5f8151905061096781610943565b92915050565b5f6020828403121561098257610981610726565b5b5f61098f84828501610959565b91505092915050565b5f82825260208201905092915050565b7f5472616e73666572206661696c656400000000000000000000000000000000005f82015250565b5f6109dc600f83610998565b91506109e7826109a8565b602082019050919050565b5f6020820190508181035f830152610a09816109d0565b9050919050565b7f4e487b71000000000000000000000000000000000000000000000000000000005f52601160045260245ffd5b5f610a47826106f5565b9150610a52836106f5565b9250828201905080821115610a6a57610a69610a10565b5b92915050565b7f496e73756666696369656e7420617373657473000000000000000000000000005f82015250565b5f610aa4601383610998565b9150610aaf82610a70565b602082019050919050565b5f6020820190508181035f830152610ad181610a98565b9050919050565b5f610ae2826106f5565b9150610aed836106f5565b9250828203905081811115610b0557610b04610a10565b5b92915050565b5f604082019050610b1e5f8301856107af565b610b2b60208301846106fe565b939250505056fea26469706673582212209cfb28478e9baf387ccbebe35bacf9594413e625212fc11986e69cf18fdcec5264736f6c634300081e0033","linkReferences":{}},"methodIdentifiers":{"_asset()":"fcea5e29","asset()":"38d52e0f","balances(address)":"27e235e3","deposit(uint256,address)":"6e553f65","maxRedeem(address)":"d905777e","redeem(uint256,address,address)":"ba087652","totalAssets()":"01e1d114","withdraw(uint256,address,address)":"b460af94"},"id":34}